:020000040800F2
:10000000A81400200101000825A80008453A0008AE
:1000100021A80008390A000851B2000800000000B9
:1000200000000000000000000000000021AB0008FC
:10003000990A0008000000008DA9000855AE0008CC
:100040001B0100081B0100081B0100081B01000820
:100050001B0100081B0100081B0100081B01000810
:100060001B0100089B0A00081B0100081B01000877
:100070001B0100081B0100081B0100081B010008F0
:100080001B0100081B010008FD0800081B010008F7
:100090001B0100081B0100081B0100081B010008D0
:1000A0001B0100081B0100081B0100081B010008C0
:1000B0001B0100081B0100081B0100081B010008B0
:1000C0001B0100081B0100081B0100081B010008A0
:1000D0001B01000821B2000831B2000841B200083B
:1000E0001B0100081B0100081B010008DFF80CD0F1
:1000F00000F0C6FB004800478DBC0008A814002093
:100100000648804706480047FEE7FEE7FEE7FEE7B1
:10011000FEE7FEE7FEE7FEE7FEE7FEE7E1AE0008EA
:10012000ED0000082DE9F05F0546002092469B4651
:1001300088460646814640241BE0284641464746FD
:10014000224600F020F853465A46C01A914110D377
:1001500011461846224600F0ADFA2D1A67EB010849
:100160004F4622460120002100F0A4FA17EB0009B7
:100170004E41201EA4F10104DFDC484631462A46E8
:100180004346BDE8F09F202A04DB203A21FA02F022
:100190000021704721FA02F3D040C2F120029140C1
:1001A00008431946704740EA01039B0703D009E062
:1001B00008C9121F08C0042AFAD203E011F8013B53
:1001C00000F8013B521EF9D27047D2B201E000F8AC
:1001D000012B491EFBD270470022F6E710B51346EB
:1001E0000A4604461946FFF7F0FF204610BD80EA94
:1001F000010210B502F00043400022D04A001FD097
:10020000010E01EB1261C0F35600C2F3560240F436
:10021000000042F40002A0FB022000047F39140415
:1002200000D0401C50EA124001D44000491EC2B226
:100230000C0604EBD010401C4008802A02D003E0DA
:10024000002010BD20F00100002900DA0020184332
:1002500010BD30B480EA010202F0004530F00042E7
:1002600021F0004013D090B1C30DD40DC2F316019C
:10027000C0F31600E41A41F4000140F400027D349A
:10028000914201D3641C00E04900002C02DA30BC2A
:10029000002070474FF400000023914201D3891AD7
:1002A000034340084FEA4101F7D151B1914202D1D5
:1002B0004FF0004105E002D24FF0010101E06FF084
:1002C000010103EBC450284430BC00F014BA2DE9FE
:1002D000FE4F804681EA0300C00F0C46009021F0DB
:1002E000004123F00045B8EB0200A94105D2404689
:1002F000214690461C460B46024623F00040104320
:1003000047D0270DC7F30A00C3F30A510290401AE1
:10031000019040286BDAC3F3130040F4801B00986F
:10032000924620B10023D2EB030A63EB0B0B01983A
:100330005946C0F14002504600F0BCF906460D4651
:1003400050465946019A00F0C4F910EB080061418B
:10035000002487EA115284EAE7731A4340D0009AD6
:1003600062B3019A012A4FEA075215DC001B61EBC8
:1003700002014FF0004202EA0752CDE90042001CA0
:1003800041F5801132462B4600F0FBF903B0BDE881
:10039000F08F40462146F9E7001B61EB0201001C8B
:1003A00041F5801300185B412018A2F5001747EBB8
:1003B000030140EAD570B6196D4111E06D084FEAAE
:1003C000360645EAC0754FEA0752001B61EB020191
:1003D000001C41F5801149084FEA300000195141D5
:1003E00032462B4603B0BDE8F04F00F0BBB9009891
:1003F000012240000023D0EB020263EBE07300987F
:1004000021464FEAE074B8EB000061EB0401E9E734
:1004100083F000435BE781F0004158E72DE9FE4F90
:1004200081EA030404F0004421F0004100944FF0FD
:10043000000B23F0004350EA01045ED052EA0304AB
:100440005BD0C3F30A54C1F30A552C44A4F2F3342D
:100450000194A0FB0254C1F3130141F48011C3F3D2
:10046000130343F4801301FB024400FB034E840A90
:10047000970A44EA815447EA8357A4FB0768029528
:100480008D0A05FB07854FEA932C04FB0C542705C6
:10049000029D4FEA065847EA1637B5EB08056EEBA2
:1004A000070C870E920E47EA811742EA8312A7FBD8
:1004B0000201B6EB0B0164EB00042B0D43EA0C3395
:1004C0005E1844EB1C50DA465146E7FB0201C5F3C7
:1004D00013044FEA0B3343EA14534FEA0432019CEE
:1004E00043EA0603A4F10C040294009CCDE900B495
:1004F00000F047F903B0BDE8F08F00200146F9E7AE
:100500002DE9F04D81EA030404F0004B21F0004591
:1005100014464FF0000A23F0004150EA050220D0B3
:1005200054EA01021DD0C5F30A570246C5F313036E
:10053000C1F31300C1F30A5640F4801543F480134D
:10054000A7EB0608101BD64608F2FD3873EB050032
:1005500002D308F1010801E092185B41B8F1000FE5
:1005600003DA00200146BDE8F08D00204FF4801131
:10057000064684460EE0171B73EB050705D3121BD6
:1005800063EB050306434CEA010C49084FEA3000CF
:1005900092185B4150EA0107EDD152EA030012D0F4
:1005A00082EA040083EA0501084305D0101BAB4131
:1005B00006D20122002306E000224FF0004302E0B1
:1005C0006FF0010253101AEB06004CEB085110EBD0
:1005D0000A0041EB0B01BDE8F04D00F0C3B89623D3
:1005E0000022114600F090B80EB540F2334102915E
:1005F0000021CDE900110A460B4600F0C2F803B015
:1006000000BD20F00040C10DC0F3160040F4000012
:100610007F2901DA00207047962903DCC1F1960199
:10062000C840704796398840704700F0004230F06B
:1006300000400AD0C10D01F56071C0F3160042EA16
:100640000151C2084007114370470020014670471E
:1006500001F0004330B421F0004150EA010206D01D
:100660000A0DA2F56072C1F31301002A02DC30BC4E
:1006700000207047440F44EAC104C100E01830BCB8
:1006800000EBC25000F037B830B50B4601460020F1
:100690002022012409E021FA02F59D4205D303FA44
:1006A00002F5491B04FA02F52844151EA2F10102C5
:1006B000F1DC30BD202A04DB203A00FA02F10020F0
:1006C00070479140C2F1200320FA03F31943904090
:1006D0007047202A06DBCB17203A41FA02F043EAA2
:1006E000E07306E041FA02F3D040C2F120029140EB
:1006F0000843194670470029A8BF7047401C4900AD
:1007000008BF20F00100704710B4B0FA80FC00FA76
:100710000CF050EA010404BF10BC704749B1CCF1A1
:10072000200421FA04F411FA0CF118BF012121432D
:100730000843A3EB0C01CB1D4FEA00614FEA1020E8
:1007400042BF002010BC704700EBC350104400298A
:10075000A4BF10BC7047401C490008BF20F0010036
:1007600010BC704710B5141E73F1000408DA401C69
:1007700041F1000192185B411A4301D120F00100C0
:1007800010BD2DE9F04D92469B4611B1B1FA81F2B0
:1007900002E0B0FA80F220329046FFF78BFF044669
:1007A0000F4640EA0A0041EA0B0153465A46084305
:1007B00013D0114653EA010019D0C8F14002504647
:1007C000FFF7E1FC05460E46504659464246FFF704
:1007D00071FF084305D0012004E020463946BDE8FA
:1007E000F08D0020054346EAE0762C4337430A9813
:1007F0006305E40AA0EB08000022FD0A44EA47541E
:100800000A3002D500200146E9E7010510196941C7
:10081000DDE9084500196941BDE8F04DA2E7C1F3E3
:100820000A52C1F3130140F2FF3341F480119A429E
:1008300002DA00200146704740F233439A42A2F2A6
:10084000334202DC5242FFF79EBCFFF733BF000089
:1008500030B5041E71F1000404DB4FF00044404247
:1008600064EB0101141E73F1000405DB1C464FF01C
:100870000043524263EB0403994208BF904230BDEB
:10088000064C074D06E0E06840F0010394E80700DD
:1008900098471034AC42F6D3FFF72CFC90C1000807
:1008A000B0C1000870B58C1810F8015B15F0070393
:1008B00001D110F8013B2A1106D110F8012B03E0F9
:1008C00010F8016B01F8016B5B1EF9D12B0705D401
:1008D0000023521E0DD401F8013BFAE710F8013B4A
:1008E000CB1A921C03E013F8015B01F8015B521E66
:1008F000F9D5A142D8D3002070BD000010B5024840
:1009000000F0C1FE10BD00004001002070B504469B
:1009100000252068806800F00100F0B12068806840
:1009200020F001002168886001F0E0FC05460EE03F
:1009300001F0DCFC401B022809D9A06A40F010003D
:10094000A062E06A40F00100E062012070BD206812
:10095000806800F001000028EAD10020F6E70000DE
:1009600038B504460025002000902068806800F01B
:10097000010080BB2068806840F001002168886029
:10098000164800681649B0FBF1F0009002E00098AC
:10099000401E009000980028F9D101F0A7FC054600
:1009A00013E001F0A3FC401B02280ED9A06A40F01E
:1009B0001000A062E06A40F00100E06200BF002089
:1009C00084F8240000BF012038BD2068806800F052
:1009D00001000028E5D00020F6E700000C00002010
:1009E00040420F000121024A11700249086070471D
:1009F000100000201400002010B5002005490870E8
:100A00000549086000224FF40061044801F068FCC9
:100A100010BD00001000002014000020000801405C
:100A200010B501E0FFF7E8FF024800680028F9D19F
:100A300010BD00001400002000BFFEE770B50024C8
:100A40000026002500BF04E0022000F057FC04440B
:100A5000761C642EF8D36420B4FBF0F51E2D05D966
:100A600040F23320854201D2012070BD0020FCE716
:100A700010B50BF099FA10BD10B5002004490870AC
:100A80000320487009F0D0FE00200249086010BD24
:100A90003010002084000020704710B5082001F0BD
:100AA0006FFA10BD704700000021074AD161074965
:100AB000096941F00401054A11611146096941F0D3
:100AC0004001116170470000300200200020024008
:100AD0000021074AD1610749096941F00201054A2D
:100AE000116111464861096941F040011161704787
:100AF00030020020002002400022054BDA61054A46
:100B0000126942F00102034B1A6101807047000034
:100B1000300200200020024000201E49C96801F078
:100B2000100139B11C49C96941F002011A4AD16169
:100B300040F010001749C96801F0040139B11649A5
:100B4000C96941F00101144AD16140F00400114922
:100B5000C96901F0010169B10F49C96941F0040196
:100B60000D4AD16100BF0B49C96921F00101094A51
:100B7000D16100BF00BF40F20111884206D1054992
:100B8000C96921F00101034AD16101E00149C8604E
:100B900000BF7047002002403002002070B50446BC
:100BA00001F0A4FB054609E0601C38B124B101F056
:100BB0009DFB401BA04201D9032070BD1248C068B4
:100BC00000F001000028EFD10F48C06800F02000BD
:100BD00020B100BF20200C49C86000BF0A48C0688F
:100BE00000F0100048B90848C06900F0010020B9C1
:100BF0000548C06800F0040018B1FFF78DFF012020
:100C0000DBE70020D9E700000020024010B50446D1
:100C100034B1012C08D0022C0AD0032C10D10BE0E7
:100C20000AA00AF04BFB0FE00BA00AF047FB0BE019
:100C30000CA00AF043FB07E00DA00AF03FFB03E025
:100C40000EA00AF03BFB00BF00BF10BD584252315E
:100C50003035200D0A000000584252323031200D4C
:100C60000A000000584252343031200D0A000000C2
:100C7000584252323032200D0A0000004E6F204D93
:100C80006F64756C65200D0A0000000010B5044605
:100C9000204600F017F801220849094802F070FACE
:100CA00007480068C06840F0200005490968C8602E
:100CB000002003490968086010BD000028000020DA
:100CC0007001002010B5044609480A49086008462A
:100CD000446000218160C16001610C2141610021FB
:100CE0008161C16102F04AF908B1FFF7DBFE10BD76
:100CF000003801407001002010B586B00446002085
:100D000002900390049005901849206888422AD1E7
:100D100000BF1748806940F4007015498861084693
:100D2000806900F40070019000BF00BF00BF08465A
:100D3000806940F0040088610846806900F0040082
:100D4000019000BF00BF132002900320039002A96E
:100D5000084801F023F900221146122001F06AFB35
:100D6000122001F057FB06B010BD00000024014026
:100D7000001002400008014000B585B000BF0D48DA
:100D8000806940F004000B4988610846806900F0E2
:100D90000400009000BF00BFC81401900120029021
:100DA00003900320049001A9034801F0F7F805B06F
:100DB00000BD0000001002400008014000B585B0F1
:100DC0000020019002900390049000BF3348806996
:100DD00040F01000314988610846806900F0100039
:100DE000009000BF00BF00BF0846806940F00400CB
:100DF00088610846806900F00400009000BF00BFD1
:100E000000BF0846806940F0080088610846806994
:100E100000F00800009000BF00BF00BF08468069D6
:100E200040F0200088610846806900F020000090B2
:100E300000BF00BF00BF0846806940F040008861E5
:100E40000846806900F04000009000BF00BF80208D
:100E5000019000200290012003900320049001A93A
:100E60000F4801F09BF8082001900020029001201B
:100E700003900320049001A90A4801F08FF8802014
:100E8000019000200290012003900320049001A90A
:100E9000044801F083F805B000BD000000100240D6
:100EA00000080140000C01407047000000B585B00B
:100EB00000BF8548806940F0040083498861084686
:100EC000806900F00400009000BF00BF00BF08462A
:100ED000806940F0080088610846806900F00800D9
:100EE000009000BF00BF00BF0846806940F01000BE
:100EF00088610846806900F01000009000BF00BFC4
:100F000000BF0846806940F020008861084680697B
:100F100000F02000009000BF00BF80200190012061
:100F2000029003900320049001A9684801F036F86C
:100F30004FF4007001900120029003900320049070
:100F400001A9624801F02AF84FF480700190012055
:100F5000029003900320049001A95C4801F01EF860
:100F6000802001900120029003900320049001A9A9
:100F7000564801F013F84FF40070019001200290E0
:100F800003900320049001A9504801F007F84FF4A2
:100F9000807001900120029003900320049001A929
:100FA0004B4800F0FBFF4FF480400190012002907D
:100FB00003900320049001A9444800F0EFFF4FF490
:100FC000004001900120029003900320049001A9A9
:100FD0003E4800F0E3FF4020019001200290039082
:100FE0000320049001A9394800F0D8FF2020019087
:100FF0000120029003900320049001A9334800F0DF
:10100000CDFF102001900120029003900320049056
:1010100001A92E4800F0C2FF4FF48050019001203A
:10102000029003900320049001A9294800F0B6FF24
:101030004FF400400190012002900390032004909F
:1010400001A9234800F0AAFF00224FF48071204834
:1010500001F046F900224FF480411C4801F040F9AC
:1010600000224FF40041194801F03AF900224021D2
:10107000164801F035F900222021144801F030F91A
:1010800000221021114801F02BF9002280210F4885
:1010900001F026F900224FF400710C4801F020F90C
:1010A00000224FF48071094801F01AF900224FF430
:1010B0008051074801F014F900224FF40041044820
:1010C00001F00EF905B000BD00100240000C014017
:1010D0000008014000B585B000BF3548806940F088
:1010E0000400334988610846806900F004000090DC
:1010F00000BF00BF00BF0846806940F0080088615B
:101100000846806900F00800009000BF00BF00BFE3
:101110000846806940F0100088610846806900F048
:101120001000009000BF00BF00BF0846806940F07B
:10113000200088610846806900F02000009000BF10
:1011400000BF00BF0846806940F040008861084643
:10115000806900F04000009000BF00BF4FF40040E5
:10116000019000200290022003900320049001A926
:10117000104800F013FF4FF48040019000200290CF
:10118000022003900320049001A90A4800F006FF02
:101190004FF40050019000200290022003900320A1
:1011A000049001A9034800F0F9FE05B000BD00005D
:1011B000001002400010014000B585B000BF324869
:1011C000806940F00400304988610846806900F079
:1011D0000400009000BF00BF00BF0846806940F0D7
:1011E000080088610846806900F00800009000BF90
:1011F00000BF00BF0846806940F0100088610846C3
:10120000806900F01000009000BF00BF00BF0846DA
:10121000806940F0200088610846806900F0200065
:10122000009000BF00BF00BF0846806940F040004A
:1012300088610846806900F04000009000BF00BF50
:10124000022001900120029003900320049001A944
:101250000E4800F0A3FE02200190012002900390AE
:101260000320049001A9094800F098FE0220019093
:101270000120029003900320049001A9034800F08C
:101280008DFE05B000BD000000100240000C0140C2
:1012900000B585B000BF1748806940F004001549CB
:1012A00088610846806900F00400009000BF00BF1C
:1012B000202001900120029003900320049001A9B6
:1012C0000D4800F06BFE4020019001200290039039
:1012D0000320049001A9084800F060FE00222021AC
:1012E000054800F0FDFF00224021034800F0F8FF10
:1012F00005B000BD001002400008014070B5054671
:101300000B4800F0EDFB4FF6FF71094800F030FB91
:10131000074800F0B1F900F4007018B1044800F07B
:10132000AEF90446024800F073FC204670BD000090
:1013300040010020FEB50546002600240020009054
:101340000190029000BF18E0002410E0124800F065
:10135000C7FB4FF6FF71104800F00AFB0E4800F083
:101360008EF95DF8241008444DF82400641C032C09
:10137000ECD3094800F04CFC761CAE42E4D30024C8
:1013800007E05DF82400B0FBF5F0044941F82400C3
:10139000641C032CF5D3FEBD400100203406002060
:1013A0000EB500200090019002901248124908608A
:1013B000811511488160002101730121017581614E
:1013C0004FF46021C16100200B49486001210A48A7
:1013D000016100F0E9F908B1FFF764FB0420009017
:1013E000012001906946044800F08CF808B1FFF72D
:1013F00059FB0EBD0024014040010020F8B5044611
:1014000000260020009000BF94F82400012801D19C
:101410000220F8BD012084F8240000BF2046FFF719
:1014200075FA0646002E62D1A06A20F4885040F07A
:101430000200A062022001F04FF830490968B1FBB8
:10144000F0F04000009002E00098401E00900098EC
:101450000028F9D12046FFF783FA2068806840F021
:1014600008002168886000F041FF054611E000F0A7
:101470003DFF401B0A280CD9A06A20F0020040F072
:101480001000A06200BF002084F8240000BF0120EB
:10149000BFE72068806800F008000028E7D12068D6
:1014A000806840F004002168886000F01FFF054656
:1014B00011E000F01BFF401B0A280CD9A06A20F0A5
:1014C000020040F01000A06200BF002084F8240059
:1014D00000BF01209DE72068806800F0040000281C
:1014E000E7D1A06A20F0020040F00100A06200BF36
:1014F000002084F8240000BF30468AE70C0000205A
:101500007047000038B5024600230020009000BF5D
:1015100092F82400012801D1022038BD012082F870
:10152000240000BF4868072812D21068406B0C796D
:10153000641E04EB84051F24AC40A0430D796D1E8E
:1015400005EB85050C68AC4020431468606327E018
:1015500048680D2812D21068006B0C79E41F04EB68
:1015600084051F24AC40A0430D79ED1F05EB8505D4
:101570000C68AC4020431468206311E01068C06A16
:101580000C790D3C04EB84051F24AC40A0430D797D
:101590000D3D05EB85050C68AC4020431468E06206
:1015A00008680A2812D31068C0680C780A3C04EB5B
:1015B00044050724AC40A0430D780A3D05EB4505E2
:1015C0008C68AC4020431468E0600FE0106800694C
:1015D0000C7804EB44050724AC40A0430D7805EBE0
:1015E00045058C68AC4020431468206108681028C9
:1015F00002D00868112827D1174C1068A0421ED1CC
:101600001068806800F40000F0B91068806840F449
:1016100000001468A0600868102815D10F48006801
:101620000F4CB0FBF4F000EB80004000009002E0B3
:101630000098401E009000980028F9D104E0906ABC
:1016400040F020009062012300BF002082F82400B7
:1016500000BF184661E70000002401400C00002094
:1016600040420F0010B50446204600F008F801493A
:10167000086010BDDC0000200146886A7047014602
:101680000868C06C704710B504462068406800F0D8
:10169000200020282FD12068006800F002000228D6
:1016A00029D1A06A00F0100018B9A06A40F40070B7
:1016B000A0622068806800F46020B0F5602F13D12C
:1016C000207B88B92068406820F0200021684860AD
:1016D000A06A20F48070A062A06A00F4805018B95B
:1016E000A06A40F00100A0622046FFF7BBFF6FF048
:1016F0001200216808602068406800F0800080289F
:101700003BD12068006800F00400042835D1A06AAD
:1017100000F0100018B9A06A40F40050A0622068E0
:10172000806800F4E040B0F5E04F0DD020684068DC
:1017300000F48060D0B92068806800F46020B0F5C3
:10174000602F13D1207B88B92068406820F080008A
:1017500021684860A06A20F48050A062A06A00F46A
:10176000807018B9A06A40F00100A0622046FFF71F
:10177000C7FE6FF00C00216808602068406800F028
:10178000400040280FD12068006800F0010050B1EF
:10179000A06A40F48030A062204600F0A7F86FF005
:1017A00001002168086010BD2DE9F04104460027C2
:1017B00000250026A84614B90120BDE8F081A068E4
:1017C00010B1207D00B100BFA06A30B90020E062F6
:1017D00084F82400204600F08BF82046FFF796F8A6
:1017E0000746A06A00F01000002873D1002F71D1C5
:1017F000A06A20F4885040F00200A062E1696068AD
:101800000843217B40EA41000643A068B0F5807F91
:1018100002D0A068012802D14FF4807000E00020BF
:101820000543207D012811D1207B38B9A069401ED5
:101830004FF4006141EA4030054307E0A06A40F000
:101840002000A062E06A40F00100E0622068406889
:1018500020F4694028432168486020688068214955
:101860000840304321688860A068B0F5807F02D0CE
:10187000A068012802D14FF4807000E00020B0F58C
:10188000807F03D1208A401E4FEA00582068C06A3A
:1018900020F4700040EA08002168C862206880686F
:1018A00011490840B04208D10020E062A06A20F04F
:1018B000020040F00100A06211E0A06A20F00200E6
:1018C00040F01000A062E06A40F00100E0620127F1
:1018D00005E0FFE7A06A40F01000A062012738464B
:1018E0006BE70000FDF7E1FFFE0E1FFF70470000F1
:1018F00010B586B004460020029003900490059035
:101900001849206888422AD100BF1748806940F4EE
:101910000070154988610846806900F400700190E4
:1019200000BF00BF00BF0846806940F00400886126
:101930000846806900F00400019000BF00BF13203A
:1019400002900320039002A9084800F027FB002220
:101950001146122000F06EFD122000F05BFD06B073
:1019600010BD0000002401400010024000080140AA
:10197000F8B504460D46002600200090002700F030
:10198000B5FC06462068806800F4807050B1A06AFB
:1019900040F02000A06200BF002084F8240000BFB7
:1019A0000120F8BD2068406800F48070F8B9206814
:1019B000C06A00F47000D0B912E0681C80B125B193
:1019C00000F094FC801BA8420AD9A06A40F00400F1
:1019D000A06200BF002084F8240000BF0320E0E7DD
:1019E0002068006800F002000028E6D050E00220E5
:1019F00000F072FD36490968B1FBF0F02168096911
:101A0000344A114091B92168C9689211114069B9ED
:101A100021680969304A114031B92168C9689211B9
:101A2000114009B9142117E0292115E0216809693D
:101A3000294A114021B92168C9689211114041B168
:101A400021680969254A114029B92168C9681140EE
:101A500009B9542100E0FC2100FB01F715E0681CE6
:101A600080B125B100F042FC801BA8420AD9A06ACF
:101A700040F00400A06200BF002084F8240000BFF2
:101A800003208EE70098401C00900098B842E6D3EF
:101A90006FF0120021680860A06A40F40070A06234
:101AA0002068806800F46020B0F5602F0DD1207BA5
:101AB00058B9A06A20F48070A062A06A00F4805037
:101AC00018B9A06A40F00100A062002069E7000098
:101AD0000C000020244992249224491249922400A7
:101AE00070B50446002500BF94F82400012801D1F8
:101AF000022070BD012084F8240000BF2046FEF7BC
:101B00002FFF0546002D77D1A06A40F201218843BE
:101B100040F48070A0623C492068884208D13B486C
:101B2000006800F4702008B9012002E0002000E005
:101B3000012078B1A06A20F48010A062206840687B
:101B400000F4806000B3A06A20F4005040F480509C
:101B5000A06219E0A06A40F48010A0622B49091F1E
:101B60002068884203D028492068884204D1274849
:101B7000006800F4806000E0002028B1A06A20F432
:101B8000005040F48050A062A06A00F4805020B160
:101B9000E06A20F00600E06201E00020E06200BFA1
:101BA000002084F8240000BFC01E2168086020685F
:101BB000806800F46020B0F5602F16D112492068CB
:101BC000884208D11148006800F4702008B901204B
:101BD00002E0002000E0012038B12068806840F475
:101BE000A000216888600CE006E02068806840F46E
:101BF00080102168886004E000BF002084F8240081
:101C000000BF284675E70000002801400424014079
:101C100070B50446002500BF94F82400012801D1C6
:101C2000022070BD012084F8240000BF2046FEF78A
:101C30006DFE05462DB9A06A20F4885040F00100E1
:101C4000A06200BF002084F8240000BF2846E8E717
:101C500070B50446002594F82100022803D0042022
:101C6000A063012548E02068006820F00E0021688C
:101C700008602068006820F00100216808601F49A2
:101C80002068884201D1012026E01C4914312068D7
:101C9000884201D110201FE018492831206888426D
:101CA00001D1801518E015493C312068884201D1E6
:101CB000801411E0114950312068884202D14FF45C
:101CC000803009E00D4964312068884202D14FF428
:101CD000801001E04FF08070084908394860012009
:101CE00084F8210000BF002084F8200000BF606B52
:101CF00010B12046616B8847284670BD080002403D
:101D00002DE9F04104460E460127002500BF264874
:101D1000007E012802D10220BDE8F0810120224985
:101D2000087600BF2068022813D14CF25030FEF72D
:101D300035FF90BB0120FEF7B7FE4CF25030FEF7A6
:101D40002DFF07461948006920F004001749086173
:101D500023E04CF25030FEF721FFF0B94FF0FF3096
:101D60003060A56812E02846FEF7B2FE4CF2503013
:101D7000FEF714FF07460D48006920F002000B49EA
:101D800008610FB1356007E005F58065D4E9021000
:101D900001EB8020A842E6D800BF00BF0020024926
:101DA000087600BF3846B7E7300200200020024026
:101DB0000348006940F08000014908610020704735
:101DC000002002402DE9FE4F05468B4617469846F7
:101DD000012600240020029000BF2448007E012834
:101DE00002D10220BDE8FE8F01202049087600BF05
:101DF0004CF25030FEF7D2FE064686BB012D02D1D2
:101E00000120029006E0022D02D10220029001E0A2
:101E10000420029000241EE02201B946C246484632
:101E20005146FEF7B0F980B20190022000FB04B0E9
:101E300000900199FEF760FE4CF25030FEF7AEFEC6
:101E400006460B48006920F001000949086106B107
:101E500004E0601CC4B202988442DDDB00BF00BF16
:101E600000200249087600BF3046BBE73002002060
:101E70000020024000200849096901F0800151B1A9
:101E80000649054A5160064951601146096901F049
:101E9000800101B101207047002002402301674505
:101EA000AB89EFCD10B50446B4F5807F47D012DC86
:101EB000102C34D008DC012C25D0022C28D0042C86
:101EC0002BD0082C52D129E0202C2DD0402C30D002
:101ED000802C4BD132E0B4F5805F34D009DCB4F50E
:101EE000007F2DD0B4F5806F2BD0B4F5006F3DD1BD
:101EF00028E0B4F5005F27D0B4F5804F2AD0B4F5C0
:101F0000004F33D12CE001211A4800F0D7F92EE020
:101F10000221184800F0D2F929E028E027E010213A
:101F2000154800F0CBF922E02021134800F0C6F953
:101F30001DE04021104800F0C1F918E017E016E05C
:101F400015E014E013E012E04FF400510B4800F0EC
:101F5000B5F90CE04FF48041084800F0AFF906E015
:101F60004FF40041054800F0A9F900E000BF00BFB0
:101F700010BD000000080140000C014000100140AD
:101F800010B5044604480068204020B102480460AF
:101F90002046FFF787FF10BD140401402DE9F847E4
:101FA0000346002294466EE14FF0010808FA02F45D
:101FB000D1F8008008EA0400A0427DD1DFF8DCA25D
:101FC000D1F80480A8EB0A09D0453AD014DCB8F166
:101FD000030F50D009DCB8F1000F31D0B8F1010F78
:101FE0001CD0B8F1020F49D120E0B8F1110F18D080
:101FF000B8F1120F42D11EE0B9F5881F25D006DCDA
:10200000B9F5803F20D0B9F5801F37D11AE0B9F576
:10201000001F18D0B9F5041F30D117E0D1F80CC05B
:102020002DE0D1F80C8008F1040C28E0D1F80C80E8
:1020300008F1080C23E0D1F80C8008F10C0C1EE02C
:1020400000BF00BF00BF00BF00BF00BFD1F80880C5
:10205000B8F1000F02D14FF0040C0BE0D1F808806A
:10206000B8F1010F03D14FF0080C1C6102E04FF0F2
:10207000080C5C6103E04FF0000C00E000BF00BF03
:10208000FF2801D8984601E003F104084646FF28DE
:1020900002D84FEA820803E0A2F108084FEA880854
:1020A0004746D6F800804FF00F0909FA07F928EAE9
:1020B00009080CFA07F900E088E048EA0908C6F8C0
:1020C0000080D1F8048008F08058B8F1805F7DD19D
:1020D00000BFDFF8CC81D8F8188048F00108DFF89D
:1020E000C091C9F81880C846D8F8188008F00108CF
:1020F000CDF8008000BF00BF4FEAB9384FEA92091F
:1021000058F829504FEA82784FEA18794FF00F08B3
:1021100008FA09F825EA0805DFF88881434502D165
:102120004FF0000816E0DFF88081434502D14FF000
:1021300001080FE0DFF87481434502D14FF0020837
:1021400008E0DFF86C81434502D14FF0030801E05D
:102150004FF004084FEA82794FEA197908FA09F832
:1021600048EA0505DFF84C814FEA920948F8295002
:10217000D1F8048008F48038B8F5803F0AD1DFF840
:102180003881D8F8008048EA0008DFF82C91C9F8B7
:10219000008009E0DFF82081D8F8008028EA0008F4
:1021A000DFF81491C9F80080D1F8048008F40038F1
:1021B000B8F5003F10D1DFF8008108F10408D8F825
:1021C000008048EA0008DFF8F09000E05AE009F1EA
:1021D0000409C9F800800DE0DFF8DC8008F104088C
:1021E000D8F8008028EA0008DFF8CC9009F104094B
:1021F000C9F80080D1F8048008F48018B8F5801F71
:102200000ED1DFF8B48008F10808D8F8008048EA59
:102210000008DFF8A49009F10809C9F800800DE072
:10222000DFF8948008F10808D8F8008028EA000850
:10223000DFF8849009F10809C9F80080D1F804801A
:1022400008F40018B8F5001F0ED1DFF86C8008F113
:102250000C08D8F8008048EA0008DFF85C9009F123
:102260000C09C9F800800DE0DFF84C8008F10C087B
:10227000D8F8008028EA0008DFF83C9009F10C0942
:10228000C9F80080521CD1F8008028FA02F8B8F191
:10229000000F7FF489AEBDE8F88700000000111040
:1022A0000010024000080140000C014000100140F5
:1022B00000140140080001400004014002469368F8
:1022C0000B400BB1012000E00020704710B5C26840
:1022D00021EA020302EA010443EA0443036110BD58
:1022E0000AB1016101E00B04036170470148006815
:1022F000704700000000002010B50F4800680F492B
:10230000097808440C4908600D48006820B10C4861
:102310000068401E0A49086009F07AFC0948006814
:1023200048B108480068401E064908604FF4006143
:102330000548FFF7CBFF10BD00000020080000207B
:1023400038010020140000200008014010B50848A2
:10235000006840F0100006490860032000F0A8F86B
:10236000002000F007F800F02BF8002010BD00005E
:102370000020024070B504460E4800784FF47A7190
:10238000B1FBF0F00C490968B1FBF0F5284600F00C
:102390002FFD08B1012070BD102C07D2002221466C
:1023A000501E00F047F80548046001E00120F2E704
:1023B0000020F0E7080000200C00002004000020AE
:1023C00008B500BF1148806940F001000F498861DD
:1023D0000846806900F00100009000BF00BF00BF08
:1023E0000846C06940F08050C8610846C06900F0E6
:1023F0008050009000BF00BF00BF0549486820F032
:10240000E06040F00070486000BF08BD001002406E
:102410000000014001460846002809DB00F01F03C8
:1024200001229A4043099B0003F1E023C3F80021F5
:1024300000BF70472DE9F05F80460D461646002725
:1024400008F04CFF074639462A46334601F007009C
:10245000C0F1070ABAF1040F02D94FF0040A01E0F3
:10246000C0F1070AD14600F1040ABAF1070F02D2FF
:102470004FF0000A01E0A0F1030AD4464FF0010A30
:102480000AFA09FAAAF1010A0AEA020A0AFA0CFA95
:102490004FF0010B0BFA0CFBABF1010B0BEA030B3A
:1024A0004AEA0B042146404608F020FFBDE8F09FB1
:1024B00000BF00F00702064B19684FF6FF031940F2
:1024C000044B0B4343EA0221014B196000BF7047E4
:1024D0000CED00E00000FA052DE9F04385B006465A
:1024E0003BA30FCB01AC0FC43DA0006800904FF0A0
:1024F0000008002500270024A146012E30D0022E1E
:1025000055D0102E5ED137484468006800F08070C6
:1025100000B301A8C4F38341475C04F4803070B178
:1025200030484068C0F340401DF8008004F480301B
:1025300040B12D48B0FBF8F000FB07F502E02B4856
:1025400007FB00F52748406800F48000B0F5800FD5
:1025500001D1A94603E068000321B0FBF1F932E0A4
:102560002048046A04F44070B0F5807F05D104F07F
:10257000020010B14FF4004918E004F44070B0F5C7
:10258000007F07D11748406A00F0020010B149F6F9
:1025900040490BE004F44070B0F5407F06D111488B
:1025A000006800F4003008B14FF224490BE000F05D
:1025B00093F90C494968C1F38131491C4900B0FBCA
:1025C000F1F900E000BF00BF484605B0BDE8F08368
:1025D00002030405060708090A0B0C0D0E0F101064
:1025E000010200000010024000127A0000093D00C4
:1025F000F8B5044600260025207800F001000028E8
:102600006BD000274348C06900F0805070B900BF0C
:102610004048C06940F080503E49C8610846C069E2
:1026200000F08050009000BF00BF01273A480068CA
:1026300000F48070B0B93848006840F480703649C2
:102640000860FFF753FE064606E0FFF74FFE801BCB
:10265000642801D90320F8BD2F48006800F4807079
:102660000028F2D02B48006A00F440752DB3A088F2
:1026700000F44070A84220D02648006A20F440753B
:10268000012026490860002008602248056205F004
:10269000010090B1FFF72AFE064608E0FFF726FE8C
:1026A000801B41F28831884201D90320D3E71948C1
:1026B000006A00F002000028F0D01648006A20F4FA
:1026C00040706168084313490862012F04D108462D
:1026D000C06920F08050C86100BF207800F002007F
:1026E000022807D10B48406820F44040A168084305
:1026F00008494860207800F01000102807D10548EC
:10270000406820F48000E1680843024948600020E6
:10271000A1E7000000100240007000404004424267
:1027200070B504460D460CB9012070BD5A480068CA
:1027300000F00700A8420ED25748006820F00700BA
:102740002843554908600846006800F00700A84281
:1027500001D00120E9E7207800F0020002281DD115
:10276000207800F00400042805D14C48406840F46B
:10277000E0604A494860207800F00800082805D148
:102780004648406840F460504449486043484068C7
:1027900020F0F000A168084340494860207800F02C
:1027A000010078B36068012806D13C48006800F455
:1027B000003090B90120B8E76068022806D1374898
:1027C000006800F0007040B90120AEE733480068AF
:1027D00000F0020008B90120A7E73048406820F067
:1027E0000300616808432D494860FFF77FFD0646F6
:1027F00009E0FFF77BFD801B41F28831884202D956
:10280000032092E707E02548406800F00C0061686B
:10281000B0EB810FEDD12048006800F00700A8421E
:102820000ED91D48006820F0070028431A490860A7
:102830000846006800F00700A84201D0012074E7B4
:10284000207800F00400042807D11448406820F4E0
:10285000E060E168084311494860207800F0080012
:10286000082808D10D48406820F46050216940EAEA
:10287000C1000A49486000F03FF808494968C1F3BF
:102880000311074A515CC8400649086006480068C1
:10289000FFF770FD002048E70020024000100240D2
:1028A00092C000080C0000200400002001480068CD
:1028B000704700000C00002000B5FFF7F7FF044947
:1028C0004968C1F30221034A515CC84000BD0000C1
:1028D00000100240A2C0000800B5FFF7E7FF04495E
:1028E0004968C1F3C221034A515CC84000BD0000E1
:1028F00000100240A2C00008F0B585B00FF26C0CC9
:102900009CE8E01001A8A0E8E0101CA52D68009547
:1029100000210022002300240020194D696801F0E5
:102920000C05F5B1042D02D0082D19D101E0154890
:1029300019E001ADC1F38346AC5D01F4803555B1BA
:102940000F4D6D68C5F340451DF805200D4D6543DD
:10295000B5FBF2F302E00C4D04FB05F3184602E070
:1029600000BF084800BF00BF05B0F0BD020304056A
:10297000060708090A0B0C0D0E0F101001020000CB
:102980000010024000127A0000093D00F8B504462C
:102990000CB90120F8BD207800F00100002878D0A3
:1029A000F848406800F00C0004280CD0F548406856
:1029B00000F00C00082811D1F248406800F4803083
:1029C000B0F5803F0AD1EF48006800F400300028DD
:1029D0005FD0606800285CD10120DBE700BF606841
:1029E000B0F5803F06D1E748006840F48030E54903
:1029F000086028E0606858B9E248006820F4803038
:102A0000E04908600846006820F4802008601AE069
:102A10006068B0F5A02F0BD1DA48006840F4802040
:102A2000D84908600846006840F4803008600AE031
:102A3000D448006820F48030D24908600846006815
:102A400020F48020086000BF606888B1FFF74EFC6A
:102A5000054606E0FFF74AFC401B642801D9032025
:102A600098E7C848006800F400300028F2D010E071
:102A7000FFF73CFC054606E0FFF738FC401B6428E6
:102A800001D9032086E7BF48006800F40030002821
:102A9000F2D1207800F00200022857D1B9484068EE
:102AA00000F00C0050B1B748406800F00C00082856
:102AB00018D1B448406800F4803098B9B148006833
:102AC00000F0020020B12069012801D0012061E757
:102AD000AC48006820F0F800616940EAC100A949EB
:102AE000086033E02069E8B10120A7490860FFF7DA
:102AF000FDFB054606E0FFF7F9FB401B022801D964
:102B0000032047E79F48006800F002000028F2D049
:102B10009C48006820F0F800616940EAC1009949CA
:102B2000086013E0002098490860FFF7DFFB0546C6
:102B300006E0FFF7DBFB401B022801D9032029E751
:102B40009048006800F002000028F2D1207800F0E0
:102B5000080008282DD1A069B8B101208B49086070
:102B6000FFF7C4FB054606E0FFF7C0FB401B022849
:102B700001D903200EE78348406A00F002000028D4
:102B8000F2D0012007F0B8FF13E000207F49086071
:102B9000FFF7ACFB054606E0FFF7A8FB401B022849
:102BA00001D90320F6E67748406A00F002000028C9
:102BB000F2D1207800F00400042873D10027714876
:102BC000C06900F0805070B900BF6E48C06940F025
:102BD00080506C49C8610846C06900F08050009080
:102BE00000BF00BF01276A48006800F48070B0B9D8
:102BF0006748006840F4807065490860FFF776FB1D
:102C0000054606E0FFF772FB401B642801D903204C
:102C1000C0E65F48006800F480700028F2D000BF72
:102C2000E068012806D15748006A40F00100554984
:102C3000086227E0E06858B95248006A20F00100B5
:102C4000504908620846006A20F00400086219E052
:102C5000E06805280BD14B48006A40F00400494960
:102C600008620846006A40F0010008620AE0454830
:102C7000006A20F00100434908620846006A20F01B
:102C80000400086200BFE068A0B1FFF72FFB054613
:102C900009E0FFF72BFB401B41F28831884202D943
:102CA000032077E622E03748006A00F0020000289F
:102CB000EFD012E0FFF71AFB054608E0FFF716FB1E
:102CC000401B41F28831884201D9032062E62D4839
:102CD000006A00F002000028F0D1012F05D1294838
:102CE000C06920F080502749C86100BFE069C8B3BF
:102CF0002448406800F00C00082860D0E0690228F1
:102D000048D1002020490866FFF7F0FA054606E0A2
:102D1000FFF7ECFA401B022801D903203AE61948D4
:102D2000006800F000700028F2D1206AB0F5803F02
:102D300007D11448406820F40030A16808431149C5
:102D40004860D4E9080108430E49496821F4741128
:102D500008430C49486001200B490866FFF7C6FA92
:102D6000054607E03DE0FFF7C1FA401B022801D904
:102D700003200FE60348006800F000700028F2D03E
:102D80002FE0000000100240000042428004424256
:102D900000700040002014490866FFF7A7FA0546B6
:102DA00006E0FFF7A3FA401B022801D90320F1E552
:102DB0000E48006800F000700028F2D111E0E069D0
:102DC000012800D1E6E50948466806F48031206A0A
:102DD000814204D106F47011606A814201D0012061
:102DE000D8E50020D6E50000000042420010024075
:102DF00070B504462546681EB0F1807F01D30120DE
:102E00000FE0681E4FF0E02148610F214FF0FF30C6
:102E100008F06CFA00204FF0E0218861072008617B
:102E2000002070BD704700002DE9F047044620687F
:102E300005682068C668206847694FF00008C146E9
:102E400005F00F08B8F1000F0AD105F0200038B1E5
:102E500006F0200020B1204608F0AEF8BDE8F0876B
:102E6000B8F1000F71D007F0010018B906F49070A6
:102E700000286AD005F0010030B106F4807018B166
:102E8000E06B40F00100E06305F0040030B107F0B2
:102E9000010018B1E06B40F00200E06305F00200B1
:102EA00030B107F0010018B1E06B40F00400E063BE
:102EB00005F0080048B106F0200010B907F0010045
:102EC00018B1E06B40F00800E063E06B68B305F018
:102ED000200028B106F0200010B1204608F06CF860
:102EE00020684069C0F38019E06B00F0080010B959
:102EF000B9F1000F22D0204608F03EF82068406962
:102F000000F04000B0B12068406920F04000216826
:102F10004861606B50B11848616B4863606BFEF7A5
:102F200097FE10B1606B416B88470CE02046FFF7BD
:102F300079FF08E02046FFF775FF04E02046FFF721
:102F400071FF0020E06389E7FFE705F0800030B102
:102F500006F0800018B1204608F0FCF87EE705F086
:102F6000400030B106F0400018B1204608F014F8D7
:102F700074E700BF72E7000065AF000810B50446B3
:102F80000CB9012010BDA06900B100E000BF94F8A9
:102F9000390028B9002084F83800204600F028F8CD
:102FA000242084F839002068C06820F4005021688B
:102FB000C860204608F050F82068006920F490406E
:102FC000216808612068406920F02A002168486172
:102FD0002068C06840F400502168C8600020E063A9
:102FE000202084F8390084F83A000020CAE7000065
:102FF00010B586B00446002002900390049005901E
:1030000059492068884237D100BF5848806940F448
:103010008040564988610846806900F480400190EC
:1030200000BF00BF00BF0846806940F0040088610F
:103030000846806900F00400019000BF00BF4815F9
:103040000290022003900320059002A94848FEF751
:10305000A5FF4FF48060029000200390049002A925
:103060004348FEF79BFF002211462520FFF7E2F9B7
:103070002520FFF7CFF975E03E492068884236D118
:1030800000BF3A48C06940F400303849C86108467A
:10309000C06900F40030019000BF00BF00BF0846C7
:1030A000806940F0040088610846806900F00400EF
:1030B000019000BF00BF0420029002200390032073
:1030C000059002A92A48FEF769FF08200290002017
:1030D0000390049002A92648FEF760FF00221146E3
:1030E0002620FFF7A7F92620FFF794F93AE02249B6
:1030F0002068884236D100BF1C48C06940F4802057
:103100001A49C8610846C06900F48020019000BFD8
:1031100000BF00BF0846806940F00800886108468B
:10312000806900F00800019000BF00BF0815029000
:10313000022003900320059002A91048FEF72EFFFD
:103140004FF40060029000200390049002A90B4805
:10315000FEF724FF002211462720FFF76BF92720F6
:10316000FFF758F906B010BD0038014000100240CA
:10317000000801400044004000480040000C0140AD
:1031800010B5034693F83A0020282FD101B10AB9AF
:10319000012010BD00BF93F83800012801D10220A2
:1031A000F7E7012083F8380000BF99629A85DA8535
:1031B0000020D863222083F83A0000BF002083F863
:1031C000380000BF1868C06840F480701C68E06078
:1031D0001868406940F001001C6860611868C068A8
:1031E00040F020001C68E0600020D2E70220D0E719
:1031F0002DE9F04104460026002500278849206873
:1032000088427DD18748067801788748027800781F
:10321000401C854B18708548815418460078182842
:1032200001DB012000E0002080498978182901DBBA
:10323000012100E00021084020B100207A490870F7
:103240007A49887078480078012800D100E0002091
:10325000744909783C2901D0012100E0002108408F
:1032600020B10020714908706F4908706E480078DD
:10327000022801D1012000E000206A4909783A299A
:1032800001D0012100E00021084020B10020674961
:1032900008706549087065488078634909788842F4
:1032A00001D1012000E000205F49097809B1012126
:1032B00000E000210840A0B101205D4908705A4893
:1032C00002785A495B48FCF76EFF002057490870A6
:1032D000554908705748C078FD2802D10120564949
:1032E000087001224F495548FFF74AFF53480068CC
:1032F000C06840F0200051490968C8608DE0FFE7D0
:103300004F492068884275D14E4805784E4801786B
:103310000078401C4C4A10704C48455410460078C8
:103320001B2801DD012000E00020484989781B2985
:1033300001DD012100E00021084020B100204249C8
:1033400008704249887040480078012800D100E0A8
:1033500000203C4909783C2901D0012100E00021EE
:10336000084020B1002039490870374908703648B4
:103370000078022801D1012000E0002031490978BD
:103380003A2901D0012100E00021084020B10020AD
:103390002E4908702C4908702C4880782A490978F1
:1033A000884201D1012000E000202749097809B1B5
:1033B000012100E00021084068B101202449087083
:1033C0002148027821492348FCF7EDFE00201F49DF
:1033D00008701D49087001221A491F48FFF7D0FEE6
:1033E0001D480068C06840F020001B490968C8609B
:1033F00013E0FFE71949206888420ED11848077882
:10340000012201461748FFF7BBFE16480068C06856
:1034100040F0200013490968C860BDE8F081000051
:1034200000380140280000202D000020F802002074
:10343000340000205C030020E80000207001002020
:103440000044004029000020370000208E030020A7
:1034500040000020F2030020B0010020004800409E
:103460002A000020F00100202DE9F84F04460E4606
:10347000174699464FF0000A94F8390020285AD18F
:1034800006B117B90120BDE8F88F00BF94F83800E5
:10349000012801D10220F6E7012084F8380000BF9E
:1034A0000020E063212084F83900FEF71FFF8246E8
:1034B000A784E784A068B0F5805F04D1206910B9C3
:1034C0000025B04602E035464FF0000800BF00205E
:1034D00084F8380000BF1BE05346002280212046BC
:1034E000CDF8009007F066FE08B10320CBE745B9A0
:1034F000B8F80000C0F308002168486008F102082D
:1035000003E02878216848606D1CE08C401EE08450
:10351000E08C0028E0D15346002240212046CDF81F
:10352000009007F047FE08B10320ACE7202084F8A4
:1035300039000020A7E70220A5E70000044A01683F
:10354000914204D0034A0168914200D000BF704705
:103550000038014000440040014604E0002000E043
:10356000401C0028FCD00A1EA1F10101F6D17047D1
:1035700010B50446082C70D2DFE804F00417293B8C
:103580004C5E708100224FF480514848FEF7A8FE3F
:1035900000224FF400414548FEF7A2FE00224FF4FE
:1035A00080714348FEF79CFE7AE0012211033F48F8
:1035B000FEF796FE00224FF400413C48FEF790FED5
:1035C00000224FF480713A48FEF78AFE68E000223C
:1035D0004FF480513548FEF783FE0122D103334872
:1035E000FEF77EFE00224FF480713148FEF778FE30
:1035F00056E0012211032D48FEF772FE0122D1038D
:103600002A48FEF76DFE00224FF480712848FEF72D
:1036100067FE45E000224FF480512448FEF760FE2B
:1036200000224FF400412148FEF75AFE0122110208
:103630001F48FEF755FE33E0012211031B48FEF739
:103640004FFE00224FF400411848FEF749FE0122C8
:1036500011021748FEF744FE22E020E000224FF45A
:1036600080511248FEF73CFE0122D1030F48FEF7BD
:1036700037FE012211020E48FEF732FE10E0012251
:1036800011030A48FEF72CFE0122D1030748FEF77A
:1036900027FE012211020648FEF722FE00E000BFCD
:1036A00000BF0520FFF758FF10BD000000080140D3
:1036B000000C0140014604E0002000E0401C00280E
:1036C000FCD00A1EA1F10101F6D1704710B50446E5
:1036D00064B900224FF480511848FEF701FE002221
:1036E0004FF400411548FEF7FBFD23E0012C0AD101
:1036F000012211031148FEF7F3FD0022E1030F48F8
:10370000FEF7EEFD16E0022C0AD10022E1020B4882
:10371000FEF7E6FD0122D1030848FEF7E1FD09E0CE
:10372000012211030548FEF7DBFD0122D103034806
:10373000FEF7D6FD0520FFF7BDFF10BD00080140D4
:1037400010B5044664B900224FF480511848FEF7C2
:10375000C7FD00224FF400511548FEF7C1FD23E0DC
:10376000012C0AD1012211031148FEF7B9FD0022F4
:1037700061030F48FEF7B4FD16E0022C0AD10022C7
:10378000E1020B48FEF7ACFD012251030848FEF7A9
:10379000A7FD09E0012211030548FEF7A1FD012262
:1037A00051030348FEF79CFD0520FFF783FF10BD82
:1037B000000C0140014604E0002000E0401C00280D
:1037C000FCD00A1EA1F10101F6D1704770B5044684
:1037D00000224FF480712448FEF782FD00224FF44E
:1037E00080412248FEF77CFD0320FFF7E3FF002520
:1037F00020E004F0800030B900224FF400411B4863
:10380000FEF76EFD04E00122D1031848FEF768FDC3
:103810006006040E012291031448FEF761FD0320A7
:10382000FFF7C8FF00224FF480411048FEF758FD13
:10383000681CC5B2082DDCDB00224FF400410B48A8
:10384000FEF74EFD0320FFF7B5FF012211020648E7
:10385000FEF746FD0320FFF7ADFF00224FF4807115
:103860000148FEF73DFD70BD00080140000C01401D
:1038700070B50446002240212148FEF731FD0022A8
:1038800020211F48FEF72CFD0320FFF793FF0025A2
:103890001EE004F0800028B9002210211848FEF72D
:1038A0001FFD04E0012210211548FEF719FD6006F6
:1038B000040E012220211248FEF712FD0320FFF71B
:1038C00079FF002220210E48FEF70AFD681CC5B2D0
:1038D000082DDEDB002210210948FEF701FD032040
:1038E000FFF768FF012240210548FEF7F9FC03209D
:1038F000FFF760FF002240210148FEF7F1FC70BD98
:10390000000C014070B5044600224FF48071244839
:10391000FEF7E6FC00224FF480412248FEF7E0FC6F
:103920000320FFF747FF00251FE004F0004030B9F7
:1039300000224FF400411B48FEF7D2FC04E00122B4
:10394000D1031848FEF7CCFC64000122910315480E
:10395000FEF7C6FC0320FFF72DFF00224FF4804145
:103960001048FEF7BDFC681CC5B2202DDDDB00222F
:103970004FF400410B48FEF7B3FC0320FFF71AFF9A
:10398000012211020648FEF7ABFC0320FFF712FFED
:1039900000224FF480710248FEF7A2FC70BD0000C7
:1039A00000080140000C014070B50446002280214F
:1039B0002348FEF795FC00224FF400712048FEF7E3
:1039C0008FFC0320FFF7F6FE00251FE004F4004003
:1039D00030B900224FF480711948FEF781FC04E0F1
:1039E000012211021648FEF77BFC640001225102FD
:1039F0001348FEF775FC0320FFF7DCFE00224FF4AE
:103A000000710F48FEF76CFC681CC5B2102DDDDBA1
:103A100000224FF480710A48FEF762FC0320FFF792
:103A2000C9FE012280210648FEF75AFC0320FFF759
:103A3000C1FE002280210248FEF752FC70BD00004A
:103A4000000C014000BFFEE710B508F02DFAFDF7AD
:103A50002DFAFDF729FAFDF7B1F90948FDF74CF900
:103A6000FDF78AF9FDF736FBFDF7A6FBFDF710FC25
:103A70000020FFF7ABFE0020FFF7FAFE10BD0000AC
:103A80004001002010B504462046FFF78DFF10BD11
:103A900010B50446092C2CD2DFE804F02B050B11DD
:103AA000171D23292A00012202211348FEF718FCC2
:103AB00020E0002202211048FEF712FC1AE0012249
:103AC00002210D48FEF70CFC14E0012202210A48F5
:103AD000FEF706FC0EE0012202210748FEF700FC7B
:103AE00008E0002202210448FEF7FAFB02E001E0B0
:103AF00000E000BF00BF10BD000C01402DE9F04FF9
:103B000089B04FF6FF70FE49086008460068FFF76D
:103B1000B9FF6420FCF766FFFCF782FF01F094FC1C
:103B2000FF20FFF753FEFF20FFF7A2FEF5A007F0EE
:103B3000C5FB4FF47A7008F091F80020F049086056
:103B400008460068FFF79EFF06F032FDEE48FDF7DD
:103B5000C7FFED48FDF752FC4FF4FA5008F07EF82D
:103B6000EA48D0F8900001287DD10020E84908609B
:103B7000C8E3E7490878FFF7A9FD0020E549086098
:103B8000B6E3E4490878FFF7DBFD4FF47A70FDF700
:103B9000D1FBE1480168DE48006800EB400202EB1F
:103BA0000010DE4A02EB0010DA4A126802EB420310
:103BB00003EB021200EB820041600020D64908604E
:103BC00008464068D249096801EB410202EB011145
:103BD000D24A02EB0111CF4A126802EB420303EB17
:103BE000021201EB820188600020CB494860084640
:103BF0008268C748006800EB400101EB0010C7492C
:103C000001EB0011C348006800EB400303EB001018
:103C100001EB8000C2600020BF498860BC4800689A
:103C2000BC4A126802EB8000411CBDA007F046FBB5
:103C3000B749096801EB410202EB0111B74A02EBF7
:103C40000111B44A126802EB420303EB021201EBCA
:103C500082018988C1F30B00FCF7C6FC80464FF057
:103C60006632B24B00E052E3FCF7D8FB0646002276
:103C7000AF4BFCF745FCCDE90001FCF7E9FC0390F4
:103C8000FCF7D3FCAB4AAC4BCDE90401FCF738FCA4
:103C900004460022A94BFCF733FC0022A84BCDE9D7
:103CA0000601FCF7BBFB824652460B46A5A007F077
:103CB00005FB9749096801EB410202EB0111974AA4
:103CC00002EB0111934A126802EB420303EB02126A
:103CD00001EB82010989C1F30B00FCF780FC8246ED
:103CE000FCF7A3FC06464FF06632904BFCF796FBC0
:103CF000804600228E4BFCF703FC044622460B460E
:103D000093A007F0DBFA8249096801EB410202EB5C
:103D10000111824A02EB01117E4A126802EB420352
:103D200003EB021201EB82018989C1F30B00FCF75E
:103D300056FC0790FCF779FC82464FF066327B4BCD
:103D4000FCF76CFB80460022794BFCF7D9FB06465A
:103D500000224FF08043FCF761FB044622460B46ED
:103D60007EA007F0ABFA00206949096801EB410227
:103D700002EB0111694A02EB0111664A126802EB7B
:103D8000420303EB021201EB820181F84B00604811
:103D9000006800EB400101EB0010604901EB0010EE
:103DA0005C49096801EB410202EB011100EB810063
:103DB00040685649896888427ED95548006800EBBA
:103DC000400101EB0010554901EB00105149096811
:103DD00001EB410202EB011100EB810040684B490D
:103DE000C968884244D94A4800684A4A126802EBC6
:103DF0008000411C5CA007F061FA01214448006882
:103E000000EB400202EB0010444A02EB0010414A72
:103E1000126802EB420303EB021200EB8200017412
:103E20003B48006800EB400101EB00103B4901EB0F
:103E300000103849096801EB410202EB011100EB67
:103E4000810090F84B0040F001003149096801EB16
:103E5000410202EB0111314A02EB01122D490968BE
:103E600001EB410303EB011102EB810181F84B00EF
:103E700044A007F023FA01202549096801EB41021B
:103E800002EB0111254A02EB0111224A126802EBF2
:103E9000420303EB021201EB820108741C48006824
:103EA00000EB400101EB00101C4901EB0011194827
:103EB000006800EB400200E01AE002EB001001EBAA
:103EC000800090F84B0040F002001149096801EBB6
:103ED000410202EB0111114A02EB01110D4A126875
:103EE00002EB420303EB021201EB820181F84B006B
:103EF0000748006800EB400101EB0010074955E05E
:103F0000B00000200D0A00004001002050020020F7
:103F10006C0000207000002034060020B006002055
:103F20006D6F64653A25640D0A00000066660A40FC
:103F30000000B0409A9999999999C93F0000594059
:103F400000408F40493A25666D410D0A000000008F
:103F5000312E32563A2566560D0A0000332E32565F
:103F60003A2566560D0A00006D6F64653A25642097
:103F700073686F72742C706F77657220646F776DE1
:103F80000D0A00005468652063757272656E7420B6
:103F90006578636565647320746865207570706505
:103FA00072206C696D69740D0A00000001EB00104D
:103FB000FB49096801EB410202EB011100EB8100B2
:103FC0004068F849496888423DD2F7A007F076F981
:103FD0000122FD48006800EB400101EB0010FB49A5
:103FE00001EB0010EE49096801EB410303EB0111FD
:103FF00000EB81000274F448006800EB400101EB23
:104000000010F24901EB0011E548006800EB4002A6
:1040100002EB001001EB800090F84B0040F0040030
:10402000E949096801EB410202EB0111E74A02EBA1
:104030000111DB4A126802EB420303EB021201EBAF
:10404000820181F84B00E048006800EB400101EB81
:104050000010DE4901EB0010D149096801EB410273
:1040600002EB011100EB81008068CE49496988426A
:104070003DD9D7A007F022F90120D349096801EB07
:10408000410202EB0111D14A02EB0111C44A12684C
:1040900002EB420303EB021201EB82010874CA48EF
:1040A000006800EB400101EB0010C84901EB001073
:1040B000BB49096801EB410202EB011100EB8100F1
:1040C00090F84B0040F00801BF48006800EB400248
:1040D00002EB0010BD4A02EB0012B148006800EB91
:1040E000400303EB001002EB800080F84B10B64851
:1040F000006800EB400101EB0010B44901EB001136
:10410000A748006800EB400202EB001001EB8000C2
:104110008068A449096988423DD2B4A007F0CEF86E
:104120000120A949096801EB410202EB0111A74AEC
:1041300002EB01119A4A126802EB420303EB0212EE
:1041400001EB82010874A048006800EB400101EB1C
:1041500000109E4901EB00119148006800EB4002FD
:1041600002EB001001EB800090F84B0040F01000D3
:104170009549096801EB410202EB0111934A02EBF8
:104180000111874A126802EB420303EB021201EBB2
:10419000820181F84B008C48006800EB400101EB84
:1041A00000108A4901EB00107D49096801EB4102CA
:1041B00002EB011100EB8100C0687A49C9698842AD
:1041C0003DD992A007F07AF801217F48006800EB02
:1041D000400202EB00107D4A02EB0010704A1268A8
:1041E00002EB420303EB021200EB820001747648FB
:1041F000006800EB400101EB0010744901EB001076
:104200006749096801EB410202EB011100EB8100F3
:1042100090F84B0040F020026B48006800EB400132
:1042200001EB0010694901EB00105D49096801EBE1
:10423000410303EB011100EB810080F84B20624841
:10424000006800EB400101EB0010604901EB001138
:104250005348006800EB400202EB001001EB8000C5
:10426000C0685049896988423DD26FA007F026F89E
:1042700001205549096801EB410202EB0111534A43
:1042800002EB0111464A126802EB420303EB0212F1
:1042900001EB820108744C48006800EB400101EB1F
:1042A00000104A4901EB00113D48006800EB400254
:1042B00002EB001001EB800090F84B0040F0400250
:1042C0004148006800EB400101EB00103F4901EB61
:1042D00000113348006800EB400303EB001001EBD2
:1042E000800080F84B202E480068401C2C49086054
:1042F0002B4800680428FFF444AC33480068401C95
:1043000031490860304800680428FFF432AC254881
:10431000D0F89400012842D1FDF742F84A48FDF751
:10432000DFFB4948FDF76AF80020274908602BE3C6
:1043300025490878FFF7CAF900201949086019E3F0
:1043400017490878FFF7FCF90020404A10605060D8
:104350003F4908600FE00220FCF7D0FF3B4AD2E95A
:104360000032C01842F10001384A03C238480068E0
:10437000401C3749086036480068B0F57A7FEAD3B8
:104380004FF47A720023314903C9FBF7CBFE0E4983
:10439000096801EB410202EB01110C4A5AE0FDE30E
:1043A000700000205002002043757272656E742008
:1043B0006265796F6E64206C6F776572206C696DD1
:1043C00069740D0A000000006C000020B006002097
:1043D000312E3276206265796F6E6420757070655B
:1043E00072206C696D69740D0A000000312E32561E
:1043F000206265796F6E6420746865206C6F7765E4
:1044000072206C696D69740D0A000000332E3276DB
:10441000206265796F6E64207570706572206C69BA
:104420006D69740D0A000000332E325620626579E2
:104430006F6E6420746865206C6F776572206C699C
:104440006D69740D0A000000400100203001002059
:104450009400002002EB0111FE4A126802EB4203B5
:1044600003EB021201EB8201C8600020FA490968DF
:1044700001EB410202EB0111F84A02EB0111F54A8E
:10448000126802EB420303EB021201EB8201486265
:104490004FF6FF70F049096801EB410202EB011190
:1044A000EE4A02EB0111EB4A126802EB420303EB06
:1044B000021201EB820188620020E9490860E949A3
:1044C0000860A9E00220FCF719FFE7490860E2480C
:1044D000006800EB400101EB0010E04901EB001027
:1044E000DC49096801EB410202EB011100EB81009C
:1044F000806ADD490968884213D9DB480068D649DB
:10450000096801EB410202EB0111D44A02EB0111EF
:10451000D04A126802EB420303EB021201EB820164
:104520008862CD48006800EB400101EB0010CB49E8
:1045300001EB0011C748006800EB400202EB0010DD
:1045400001EB8000406AC8490968884213D2C64816
:104550000068C149096801EB410202EB0111BF4A41
:1045600002EB0111BB4A126802EB420303EB021299
:1045700001EB82014862B848006800EB400101EBA2
:104580000010B64901EB0010B249096801EB410285
:1045900002EB011100EB8100C068B3490968884251
:1045A00017D2AD48006800EB400101EB0010AB49A9
:1045B00001EB0011A748006800EB400202EB00107D
:1045C00001EB8000C068A8490968081AA64908607C
:1045D00016E0A148006800EB400101EB00109F4984
:1045E00001EB00109B49096801EB410202EB01114C
:1045F00000EB8100C0689C490968401A9A4908602C
:1046000097480068984909680844954908609548A2
:104610000068401C9349086092480068B0F5FA5F52
:10462000FFF450AF8E4801688B48006800EB4002F1
:1046300002EB0010894A02EB0010864A126802EB76
:10464000420303EB021200EB8200416182480068E2
:10465000804A126802EB8000411CAFF23C7006F009
:104660002DFE7D49096801EB410202EB01117B4AF5
:1046700002EB01127749096801EB410303EB0111D9
:1046800002EB81018989C1F30B00FBF7A8FF0790BA
:10469000FBF7CBFF06464FF06632744BFBF7BEFECE
:1046A00082460022724BFBF72BFF044600224FF09C
:1046B0008043FBF7B3FE804642460B466DA006F0F2
:1046C000FDFD6549096801EB410202EB0111634AF6
:1046D00002EB01125F49096801EB410303EB011191
:1046E00002EB8101898CC1F30B00FBF778FF079087
:1046F000FBF79BFF06464FF066325C4BFBF78EFEE6
:10470000824600225A4BFBF7FBFE804600224FF008
:104710008043FBF783FE044622460B4659A006F071
:10472000CDFD4D49096801EB410202EB01114B4AF5
:1047300002EB0111474A126802EB420303EB02123B
:1047400001EB8201098DC1F30B00FBF748FF0790D5
:10475000FBF76BFF06464FF06632444BFBF75EFEFD
:1047600082460022424BFBF7CBFE044600224FF06C
:104770008043FBF753FE804642460B4646A006F0B8
:104780009DFD3548006800EB400202EB0010334A03
:1047900002EB00102F4A126802EB420303EB0212F5
:1047A00000EB8200416941A006F088FD2A480068BC
:1047B00000EB400101EB0010284901EB00102549F6
:1047C000096801EB410202EB011100EB8100406A34
:1047D00039490968884213D91F48006800EB400135
:1047E00001EB00101D4901EB00101A49096801EBAB
:1047F000410202EB011100EB8100406A2E49086082
:104800001548006800EB400101EB0010134901EB73
:1048100000101049096801EB410202EB011100EBA5
:104820008100806A2549096888424AD20A4800689E
:1048300000EB400101EB0010084901EB00100549B5
:10484000096801EB410202EB011100EB8100806A73
:104850001A4935E0700000206C000020B0060020EE
:10486000A8000020940000209800002066660A40FE
:104870000000B0405374617469632069663A25662C
:10488000560D0A00537461746963206966206D6176
:10489000783A2566560D0A0053746174696320697D
:1048A00066206D696E3A2566560D0A0053554D30E7
:1048B0003A2534640D0A00000C010020100100208C
:1048C0000860FE48006800EB400101EB0010FC4965
:1048D00001EB0010FB49096801EB410202EB0111F9
:1048E00000EB81004069F8490968884213D9F34810
:1048F000006800EB400101EB0010F14901EB0010F2
:10490000F049096801EB410202EB011100EB810063
:104910004069ED490860E948006800EB400101EB9F
:104920000010E74901EB0010E649096801EB41027C
:1049300002EB011100EB81004069E44909688842FB
:1049400013D2DE48006800EB400101EB0010DC49A7
:1049500001EB0010DB49096801EB410202EB011198
:1049600000EB81004069D9490860D6480068401CC6
:10497000D4490860D34800680428FFF4E1ACCF486C
:104980000068401CCD490860CC4800680428FFF44A
:10499000CFACCF4800684100CEA006F08FFCD348D2
:1049A00000684100D2A006F089FCC7480168D6A083
:1049B00006F084FCC5480168D8A006F07FFC012001
:1049C00005F0C0FD4FF47A7007F048F90020BB49AC
:1049D00008608CE3B9490878FEF778FE0020B949F1
:1049E00008607AE3B7490878FEF7AAFE0022B348C8
:1049F000006800EB400101EB0010B14901EB001031
:104A0000B049096801EB410303EB011100EB8100A0
:104A1000C2624FF6FF70A949096801EB410202EB3F
:104A20000111A74A02EB0112A649096801EB4103F3
:104A300003EB011102EB810108630020BC4908600F
:104A4000BC490860A9E00220FCF758FCBA4908609C
:104A50009A48006800EB400101EB0010984901EB17
:104A600000119848006800EB400202EB001001EBD7
:104A70008000006BB0490968884213D9AE480068CD
:104A80008E49096801EB410202EB01118C4A02EBED
:104A900001118C4A126802EB420303EB021201EB94
:104AA000820108638548006800EB400101EB0010BB
:104AB000834901EB00108349096801EB410202EBD5
:104AC000011100EB8100C06A9B490968884213D23A
:104AD000994801687948006800EB400202EB001039
:104AE000774A02EB00127748006800EB400303EBC3
:104AF000001002EB8000C1627048006800EB4001CA
:104B000001EB00106E4901EB00106E49096801EBE2
:104B1000410202EB011100EB8100C068864909687F
:104B2000884217D26548006800EB400101EB001095
:104B3000634901EB00106349096801EB410202EB94
:104B4000011100EB8100C0687B490968081A7A49A5
:104B5000086016E05948006800EB400101EB0010C6
:104B6000574901EB00105749096801EB410202EB7C
:104B7000011100EB8100C0686F490968401A6E4955
:104B800008606B4800686C49096808446849086017
:104B900068480068401C6749086000E0ACE265486E
:104BA0000068B0F5FA5FFFF44EAF61480068434912
:104BB000096801EB410202EB0111414A02EB0111CC
:104BC000404A126802EB420303EB021201EB82013E
:104BD00088613A4800683B4A126802EB8000411C39
:104BE000AFF6C44006F06AFB3449096801EB4102A4
:104BF00002EB0111324A02EB0111324A126802EB58
:104C0000420303EB021201EB82018989C1F30B001D
:104C1000FBF7E5FC0790FBF708FD06464FF0663210
:104C2000464BFBF7FBFB80460022454BFBF768FC3D
:104C3000044600224FF08043FBF7F0FB82465246C9
:104C40000B4640A006F03AFB1C49096801EB410203
:104C500002EB01111A4A02EB01111A4A126802EB27
:104C6000420303EB021201EB8201898DC1F30B00B9
:104C7000FBF7B5FC0790FBF7D8FC80464FF0663297
:104C80002E4BFBF7CBFB064600222D4BFBF738FCE7
:104C9000044600224FF08043FBF7C0FB8246524699
:104CA0000B462DA006F00AFB0449096801EB4102FE
:104CB00002EB0111024A02EB011159E06C000020E5
:104CC000B0060020700000201C0100202001002000
:104CD0000C010020565F33565F41644D61783020EF
:104CE0003D20307825780D0A0000000010010020DA
:104CF000565F33565F41644D696E30203D203078F9
:104D000025780D0A0000000053554D305F4D617845
:104D1000203D20307825780D0A00000053554D3095
:104D20005F4D696E203D20307825780D0A00000027
:104D3000A8000020940000209800002066660A4029
:104D40000000B04044796E616D69632069663A2560
:104D500066560D0A0000000044796E616D6963209B
:104D60006966206D61783A2566560D0A00000000DC
:104D7000F84A126802EB420303EB021201EB8201D4
:104D8000098EC1F30B00FBF72AFC0790FBF74DFCE3
:104D900082464FF06632F04BFBF740FB8046002224
:104DA000EE4BFBF7ADFB064600224FF08043FBF7CE
:104DB00035FB044622460B46E9A006F07FFAEE4892
:104DC000006800EB400202EB0010EC4A02EB00101E
:104DD000E04A126802EB420303EB021200EB82008E
:104DE0008169E7A006F06AFAE348006800EB400139
:104DF00001EB0010E14901EB0010D649096801EB15
:104E0000410202EB011100EB81008169DA48006880
:104E100000EB400202EB0010D84A02EB0012CD4832
:104E2000006800EB400303EB001002EB80004069D8
:104E3000814201D9012000E00020CF49096801EB3F
:104E4000410202EB0111CD4A02EB0111C14A126885
:104E500002EB420303EB021201EB82018969C64AAD
:104E6000126802EB420303EB0212C44B03EB021283
:104E7000B84B1B6803EB430404EB031302EB830200
:104E80005269891AC14AD26D914201D9012100E0CB
:104E90000021084018B1BEA006F010FA50E0C3A0EF
:104EA00006F00CFAB448006800EB400101EB00107A
:104EB000B24901EB0010A749096801EB410202EB7E
:104EC000011100EB8100007C40F00400AA49096850
:104ED00001EB410202EB0111A84A02EB01119D4ACC
:104EE000126802EB420303EB021201EB8201087429
:104EF000A148006800EB400101EB00109F4901EB65
:104F000000119448006800EB400202EB001001EB36
:104F1000800090F84B0040F080029748006800EB5A
:104F2000400101EB0010954901EB00108949096827
:104F300001EB410303EB011100EB810080F84B20F2
:104F40008D48006800EB400101EB00108B4901EB3C
:104F500000108049096801EB410202EB011100EBEE
:104F60008100C06A9A490968884213D9824800685A
:104F700000EB400101EB0010804901EB0010754986
:104F8000096801EB410202EB011100EB8100C06AEC
:104F90008F4908607848006800EB400101EB001081
:104FA000764901EB00106B49096801EB410202EB05
:104FB000011100EB8100006B86490968884213D219
:104FC0006D48006800EB400101EB00106B4901EBFC
:104FD00000106049096801EB410202EB011100EB8E
:104FE0008100006B7B4908606348006800EB40016A
:104FF00001EB0010614901EB00105649096801EB13
:10500000410202EB011100EB8100806972490968DD
:10501000884213D95848006800EB400101EB0010AA
:10502000564901EB00104B49096801EB410202EBC4
:10503000011100EB81008069674908604E480068F3
:1050400000EB400101EB00104C4901EB001041491D
:10505000096801EB410202EB011100EB810080695C
:105060005E490968884213D24348006800EB40015A
:1050700001EB0010414901EB00103649096801EBD2
:10508000410202EB011100EB810080695349086085
:105090003948006800EB400101EB0010374901EB93
:1050A00000102C49096801EB410202EB011100EBF1
:1050B0008100007C60B1304800782649097801EB16
:1050C0008001012088404649096808434449086036
:1050D00020480068401C1F4908601E4800680428DA
:1050E000FFF480AC24480068401C23490860224833
:1050F00000680428FFF46EAC35480068410039A010
:1051000006F0DCF83348006841003CA006F0D6F811
:10511000314801683FA006F0D1F83048016842A04C
:1051200006F0CCF82E48006898B16420FBF75AFCD2
:10513000FBF776FC642006F091FD6420FBF752FC3F
:10514000FBF76EFC642006F089FD6420FBF74AFC47
:1051500077E073E07000002066660A400000B0400F
:1051600044796E616D6963206966206D696E3A25C8
:1051700066560D0A000000006C000020B0060020FA
:1051800053554D313A2534640D0A00005002002079
:1051900054686520726164617220696E746567721B
:1051A000616C206973206F6B0D0A000054686520E4
:1051B000726164617220696E74656772616C2069E6
:1051C0007320746F6F20736D616C6C0D0A000000AA
:1051D00014010020180100202401002028010020D3
:1051E000B0000020565F33565F41644D6178312036
:1051F0003D20307825780D0A00000000565F3356B8
:105200005F41644D696E31203D20307825780D0A6C
:105210000000000053554D315F4D6178203D203036
:105220007825780D0A00000053554D315F4D696EA9
:10523000203D20307825780D0A0000006420FBF71F
:10524000D1FB3A480068FEF71DFC032005F07AF90F
:105250000020FEF7BBFA0020FEF70AFB3C20344991
:1052600008703A2048702A208870F420C8702F48AF
:105270000068000E08712D480068000C48712B482A
:105280000088000A887129480078C87100202949DF
:1052900008602EE000202849086021E025480068C9
:1052A00000EB400101EB0010244901EB0010224902
:1052B000096801EB410202EB011100EB810090F85B
:1052C0004B101C480068082202EB80001A4A126842
:1052D0001044174A115418480068401C16490860C9
:1052E000154800680428D9D312480068401C1149A9
:1052F0000860104800680828CCD33A200C4981F88F
:1053000028003E2081F82900084680780C49087062
:1053100008460178064805F0B7FF62B640F6B83097
:1053200006F09CFC09B0BDE8F08F0000B000002042
:10533000C00300206C00002070000020B006002098
:105340003800002070B50446214630A005F0B6FFB5
:1053500000F07AF80020314908600120A040086080
:1053600008460068FEF78EFB2C490878FEF72EFAF7
:105370002A480088C0F30720FEF77AFA2546E1178D
:1053800004EB9171C1F38700FEF7A0F9E11704EB7C
:1053900091718910A4EB8101C8B2FEF7D1F92048C0
:1053A00005F08CFF6420FBF71DFBFBF739FB41F296
:1053B000883006F053FCFBF7F3FF1A48FCF790FB2C
:1053C0001848FCF71BF80020174908600BE0FBF7B2
:1053D00035FB00B10BE0642006F040FC1248006889
:1053E000401C11490860104800683C28EFD300BFFA
:1053F0000D4800683C2803D20CA005F05FFF03E0D5
:105400000DA005F05BFF70BD00BFFCE7C4A3BFE9C2
:10541000B1E0BAC5CEAA2564200D0A00B000002074
:10542000B7C0000840010020700000204368697088
:105430005F69734F6B0D0A00436869705F69732081
:105440004661696C0D0A000070B50024002500BF9C
:1054500039E1002532E1002004EB440101EB0411A5
:105460009B4A02EB011105EB450202EB051201F824
:10547000220004EB440101EB0411954A02EB0111F7
:1054800005EB450202EB051201EB8201486004EBDB
:10549000440101EB04118E4A02EB011105EB4502B8
:1054A00002EB051201EB8201886004EB440101EB81
:1054B0000411874A02EB011105EB450202EB0512CC
:1054C00001EB8201C86004EB440101EB0411804A46
:1054D00002EB011105EB450202EB051201EB820123
:1054E000087404EB440101EB0411794A02EB011149
:1054F00005EB450202EB051201EB8201486104EB6A
:10550000440101EB0411724A02EB011105EB450263
:1055100002EB051201EB8201886104EB440101EB0F
:1055200004116B4A02EB011105EB450202EB051277
:1055300001EB8201C86104EB440101EB0411644AF0
:1055400002EB011105EB450202EB051201EB8201B2
:10555000086204EB440101EB04115D4A02EB011106
:1055600005EB450202EB051201EB8201486204EBF8
:10557000440101EB0411564A02EB011105EB45020F
:1055800002EB051201EB8201886204EB440101EB9E
:1055900004114F4A02EB011105EB450202EB051223
:1055A00001EB8201C86204EB440101EB0411484A9B
:1055B00002EB011105EB450202EB051201EB820142
:1055C000086304EB440101EB0411414A02EB0111B1
:1055D00005EB450202EB051201EB820181F8340074
:1055E00004EB440101EB0411394A02EB011105EB14
:1055F000450202EB051201EB820181F8350004EB54
:10560000440101EB0411324A02EB011105EB4502A2
:1056100002EB051201EB820181F8360004EB440134
:1056200001EB04112A4A02EB011105EB450202EBE2
:10563000051201EB820181F8370004EB440101EB14
:105640000411234A02EB011105EB450202EB05129E
:1056500001EB820181F8380004EB440101EB0411F5
:105660001B4A02EB011105EB450202EB051201EBAF
:10567000820181F8390004EB440101EB0411144A62
:1056800002EB011105EB450202EB051201EB820171
:1056900081F83A0004EB440101EB04110C4A02EBDF
:1056A000011105EB450202EB051201EB820101F14C
:1056B0003B001021FAF790FD681CC5B2042DFFF6DF
:1056C000CAAE601CC4B2082CFFF6C3AE70BD0000A9
:1056D000B00600202DE9F04F89B04FF6FF70FE496B
:1056E000086008460068FEF7CDF96420FBF77AF9F8
:1056F000FBF796F901F06AF8FF20FEF767F8FF2044
:10570000FEF7B6F8F5A005F0D9FD4FF47A7006F073
:10571000A5FA0020F049086008460068FEF7B2F9D3
:1057200004F046FFEE48FCF7DBF9ED48FBF766FEB8
:1057300040F6B83006F092FA41F6583006F08EFA8C
:105740000020E5490860E748D0F8900001287CD1A6
:105750000020E5490860FDE3E3490878FDF7B6FF5E
:105760000020E2490860F6E3E0490878FDF7E8FF29
:105770004FF47A70FBF7DEFDDD480068DA4909680E
:1057800001EB410202EB0111DA4A02EB0111D74AA7
:10579000126802EB420303EB021201EB8201486044
:1057A000D3484068D049096801EB410202EB01117E
:1057B000D04A02EB0111CD4A126802EB420303EB1F
:1057C000021201EB82018860C9488068C6490968F5
:1057D00001EB410202EB0111C64A02EB0111C34A7F
:1057E000126802EB420303EB021201EB8201C86074
:1057F000BD480068BD4A126802EB8000411CBEA093
:1058000005F05CFDB849096801EB410202EB0111AA
:10581000B84A02EB0111B54A126802EB420303EBEE
:10582000021201EB82018988C1F30B00FAF7DCFE5A
:1058300006464FF06632B34BFAF7F0FD0022B24B4A
:10584000CDE90001FAF75CFE00E094E3CDE9020146
:10585000FAF7FEFE0590FAF7E8FE8046AB4AAC4B3D
:10586000FAF74EFE04460022AA4BFAF749FE002240
:10587000A94BCDE90601FAF7D1FD824652460B4607
:10588000A6A005F01BFD9849096801EB410202EB57
:105890000111984A02EB0111944A126802EB42038B
:1058A00003EB021201EB82010989C1F30B00FAF745
:1058B00096FE8246FAF7B9FE80464FF06632914B6B
:1058C000FAF7ACFD064600228F4BFAF719FE0446A4
:1058D00022460B4694A005F0F1FC8349096801EBD0
:1058E000410202EB0111834A02EB01117F4A126867
:1058F00002EB420303EB021201EB82018989C1F33F
:105900000B00FAF76CFE0790FAF78FFE80464FF017
:1059100066327C4BFAF782FD064600227A4BFAF794
:10592000EFFD824600224FF08043FAF777FD0446F0
:1059300022460B467FA005F0C1FC00206A49096899
:1059400001EB410202EB01116A4A02EB0111674AC5
:10595000126802EB420303EB021201EB820181F8B1
:105960004B006148006800EB400101EB0010614909
:1059700001EB00105D49096801EB410202EB0111E6
:1059800000EB810040685749496A88427ED95648F1
:10599000006800EB400101EB0010564901EB0010DC
:1059A0005249096801EB410202EB011100EB810051
:1059B00040684C49896A884244D94B4800684B4A40
:1059C000126802EB8000411C5DA005F077FC01200D
:1059D0004549096801EB410202EB0111454A02EB1E
:1059E0000111424A126802EB420303EB021201EB7F
:1059F000820108743C48006800EB400101EB001094
:105A00003C4901EB00113948006800EB400202EB11
:105A1000001001EB800090F84B0040F0010032498B
:105A2000096801EB410202EB0111324A02EB01115C
:105A30002E4A126802EB420303EB021201EB8201D1
:105A400081F84B0045A005F039FC0121264800688B
:105A500000EB400202EB0010264A02EB0010234A42
:105A6000126802EB420303EB021200EB82000174A6
:105A70001D48006800EB400101EB00101D4901EBDF
:105A800000111A48006800EB400200E01AE002EB47
:105A9000001001EB800090F84B0040F00202124829
:105AA000006800EB400101EB0010124901EB00110E
:105AB0000E48006800EB400303EB001001EB800090
:105AC00080F84B200848006800EB400101EB001013
:105AD000084901EB001155E0B00000200D0A00005C
