:020000040800F2
:10000000C80E0020DD5F0008915C0008935C0008CA
:10001000955C0008975C0008995C000800000000EF
:100020000000000000000000000000009B5C0008D1
:100030009D5C0008000000009F5C0008A15C0008B7
:100040001F60000823600008276000082B6000087C
:100050002F60000833600008376000083B6000082C
:100060003F600008A55C0008436000084760000886
:100070004B6000084F60000853600008576000089C
:100080005B6000085F600008AB5C0008636000080C
:10009000676000086B6000086F600008736000080C
:1000A000776000087B6000087F60000883600008BC
:1000B000876000088B600008AF1E00088F60000892
:1000C00093600008976000089B6000089F6000082C
:1000D000A3600008B15C0008B75C0008BD5C0008C4
:1000E000A7600008AB600008AF6000082DE9F04F82
:1000F0000FF2A41CA1B0DCE90089CDE900892A9D9A
:10010000DFF8DC9B049100248DF843500D944FF0F0
:10011000FF38824616461F460FE0B3462C461BF8B2
:10012000011B0498D0470028049000F0A2800D988D
:10013000401C641E0D90F2D176193078252808D124
:10014000002100220791089209910A920B910C92CA
:100150000DE06A464146304600F0DAFF050001D165
:100160000D98A1E0D9D50125E6E741F0010116F887
:10017000010F2028F9D023280CD02B2804D02D28BB
:1001800005D0302809D076E041F00201EFE741F0D8
:100190000401ECE741F00801E9E741F01001E6E76E
:1001A0000F9209E00F98484505DA00EB800402EB56
:1001B0004402303A0F92761C3278A2F130000A28BD
:1001C000F0D330782E2818BFCDF8388022D116F819
:1001D000010F2A2807D138683860761C50F8042BA4
:1001E00038600E9216E02D280CBF761C00200022ED
:1001F0000E920AE040B90E9A4A4505DA02EB8204F3
:1002000003EB4403303B0E93761C3378A3F13002AA
:100210000A2AEFD3ADF8401021A0317800F082FF18
:1002200008B116F8010B8DF842009DF842006828CD
:1002300004D1307868280AD1622105E06C2804BF17
:1002400030786C2803D171218DF84210761C12A8E9
:1002500006903A4616F8013B02A9504600F064F8B1
:1002600038B912AA02A9504600F0C8F900287FF553
:1002700064AF404618E02A2892D13A683A6052F8B2
:10028000040B3A6000280F9003D540420F9041F0D4
:100290000401761C95E7000000000000000000004B
:1002A000686A6C747A4C000021B0BDE8F08F622857
:1002B00020D0682811D06A2803D06C2827D0712854
:1002C00025D10868C01D20F007000860D0E9002390
:1002D00008300860194610467047002A0A680A600C
:1002E000106803D0121D0A6000B217E0121D0A60E8
:1002F00080B217E0002A0A680A60106803D0121D55
:100300000A6040B20AE0121D0A60C0B20AE0002A88
:100310000A680A60106803D0121D0A60C11770478E
:10032000121D0A60002170477CB50D4611461C461F
:100330002E69B4F1250200F04F811C3A00F0848050
:10034000121F022A40F280800E3A00F00981521FEB
:1003500059D0093A78D0921E16D0521E35D0521E6E
:10036000022A71D9121F30D0521F00F09880521EFD
:1003700049D0521E00F0E280D21E00F0FF80921E93
:1003800041D0D21E3FD02DE195F83A406C2C09D0D7
:100390006869421C6A610A680A6052F8043B0A6094
:1003A000335429E10A680A6052F8043B0A6000935A
:1003B000002201924FF0FF332B636A46294600F07A
:1003C00098F9002840F1188103E195F83A000122DC
:1003D000FFF76DFFC5E90001002904D56869411CDC
:1003E00069612D220DE0288F810704D56869411CC1
:1003F00069612B2205E0C00721D56869411C69614C
:10040000202232541BE095F83A000022FFF74FFFFC
:10041000C5E9000195F83800010710D5D5E900239A
:10042000002B08BF002A0AD044F02000782806D10B
:10043000686930213154401C421C6A6134542146A1
:1004400068693044E86087E00868C01D20F0070054
:100450000860D0E9002308300860C5E90023D5E929
:100460000001C80F04D06869411C69612D220DE0AC
:10047000288F810704D56869411C69612B2205E03A
:10048000C00704D56869411C69612022325468693B
:100490003044E8602146284600F036FAACE005F129
:1004A0003A02507820B14FF0FF340FF6043074E078
:1004B0001078622808D0682824D06A2812D06C28C6
:1004C0002ED071280ED02BE00A680A6052F8040B77
:1004D0000A6020B94FF0FF340FF6EC205DE0E96AC6
:1004E000017089E00A680A6052F8040B0A6020B9BA
:1004F0004FF0FF340FF6D0204FE0EA6AD317C0E97F
:10050000002379E00A680A6052F8040B0A6020B9F7
:100510004FF0FF340FF6B0203FE0E96A01806BE056
:100520000A680A6052F8040B0A6020B94FF0FF34E1
:100530000FF6942031E0E96A01605DE00A680A6024
:1005400052F8040B0A60002120F0000221F0FF3372
:10055000C5E90023EE607821284600F02DF94BE034
:100560006C2285F83A200B680B6053F8042B0B6063
:1005700052BB4FF0FF340FF684200EE095F83A207E
:100580006C2AF0D00868086050F8044B0860EC60F2
:100590003CB94FF0FF340FF6482000F0EBFD201A75
:1005A00076BD2E6B002E04D5204600F003FE0446D7
:1005B00008E032460021204600F006FE002814BF65
:1005C000041B3446AC6117E0294600F092F800287D
:1005D00012D54FF0FF3076BD6869411C6961252254
:1005E000325409E06969481C68612522725421006F
:1005F00002D0431C6B613454002076BD2DE9F041DC
:100600000E4605469046726B7069316AB46A121ADA
:10061000B069521A716A121AF069521A121A96F8CF
:100620003800141B41070DD4002C0BDD2746B068A1
:100630002021A8470028B06057D0F06A401C7F1ED8
:10064000F062F4D1736942463146284600F098FCC6
:1006500000284AD1376A002F0ADDB0683021A84748
:100660000028B06041D0F06A401C7F1EF062F4D1D7
:10067000B369F2683146284600F082FCA8BB776A6D
:10068000002F09DDB0683021A847B06068B3F06A78
:10069000401C7F1EF062F5D1F068B169F369421821
:1006A0003146284600F06CFCF8B9B76A002F09DD26
:1006B000B0683021A847B060B8B1F06A401C7F1E16
:1006C000F062F5D196F8380041070BD5002C09DD12
:1006D000B0682021A847B06038B1F06A401C641EA1
:1006E000F062F5D10020BDE8F0814FF0FF30BDE8A9
:1006F000F0812DE9F8470D46A3B02F6B002F064679
:10070000904648BF6FF000470FF60C1400F088FDCC
:10071000D4E90023696B4018CDE90123812828BF63
:100720004FF0FF3042D20024002F33DDD8F8001004
:1007300001AA684600F0EEFC8146B9F1000F38D4FA
:10074000D8F8000010B9B9F1010932D44F4521DBC6
:100750006869484481280AD30021696303AA2946AD
:100760003046FFF74BFF040014D40020686103AB50
:10077000D5F814A04A46694603EB0A0000F064FD70
:10078000CA44C5F814A058F8040B002818BFA7EBFA
:100790000907C9D14CB903AA29463046FFF72EFFF5
:1007A000044614B9002068616863204624B0BDE89F
:1007B000F0874FF0FF34F8E72DE9FC4307466F2937
:1007C0003E6908BF082405D041F02000782814BFF6
:1007D0000A2410243C25D7E90023642918BF69297D
:1007E0009046994605D1002B03D5D8F1000869EB56
:1007F0004909B9F1000F08BFB8F1000F1FD1386BDC
:10080000E8B9082C4CD197F83800010748D53020BA
:100810003B2586F83B0043E000280ED597F83800CA
:1008200000F01400102808D17B6B7969386A5B1AD4
:100830001B1A9A1A002AC8BF3A62BDE8F3838DF8E2
:100840000010404649462246E31700F009FD3032C9
:10085000D0B26D1E3A28019504DB9DF80000A0F18E
:1008600051018A187255404649462246E31700F066
:10087000F7FC80465FEA010908BFB8F1000F03D01A
:10088000F86871198842DCD3082C09D197F8380030
:10089000010705D5705D302802D06D1E30207055DF
:1008A000C5F13C02BA617119F960386B8242B3DA62
:1008B000821A3A624FF6EF70398F01403987BDE8EE
:1008C000F3832DE9D04306460F4614464FF0000847
:1008D000DFF8109412E0E00707D542464B46304659
:1008E000394600F041FD06460F464046494642461D
:1008F0004B4600F039FD641080468946002CEAD151
:1009000030463946BDE8D0832DE9F84F05468A4682
:100910004AF020048EB0D5E90089612C02AE09D0DE
:10092000286B002848BF062003D408BF672C01D1DC
:1009300001202863D5E900014A005215521C0DD14F
:100940000B030BD0AAF1610103201A29A86102D27E
:100950000FF2CC6110E00FF2CC610DE04A005215AD
:10096000521C0ED10B030CD1AAF1610103201A29EC
:10097000A86116D30FF2B461E868032200F064FCAA
:10098000C0E1CDE90C01DDE90C2323F00043B3F510
:10099000801F0DD20027002B08BF002A019703D12A
:1009A00011E00FF28461E7E701AA00F0AFFD0AE071
:1009B000CD48CE4900EB1350DDE90C2301900B40EC
:1009C000CB4910461943C5E90001612C0DD1E868F7
:1009D00030210170821CBAF1610FEA600CBF7821EE
:1009E000582141706869801C6861D5E90001CDE932
:1009F0000C01DDE90C2333F0004104BF0028002383
:100A000000F04881612C40F0A080286B4946002806
:100A10004CBF4FF0210B00F1010B40460022002398
:100A2000DDE90C8900F0AAFD01990BF1010738BF3F
:100A300089F00049091F002F01918DF808200DF160
:100A4000090040F33581A9490091064640464946D0
:100A50000022002300F0AAFD80F029814800400D0B
:100A600000F11C0211D0002A0FDD40F2FF739A4200
:100A700005DBA04909F000400143002011E0009B84
:100A8000194041EA025140460BE028F0000039F0DD
:100A9000004108BF00280FBF49461C22494600F00C
:100AA0009DFD8046894600F037FEFF1F002F04465B
:100AB00009DD00F04FFE02460B464046494600F075
:100AC0005BFE80468946F01D072104E004F00F021A
:100AD00000F8012D2411002C01DD491EF6D5491E18
:100AE0005CBF002200F8012DF9D5DCE0002019469A
:100AF00002AA0A4400E05B1E12F80149491E844222
:100B0000F9D00F2804D10DF10900425C521C425467
:100B1000002904D50198001D02AE5B1C0190581EEF
:100B20000CD43118AAF13A040A783032D7B23A2FED
:100B3000A8BFA218401E01F80129F5D5286B00288E
:100B400040F1A780591E2963A3E001996A4A47F240
:100B50009750414391FBF2F2019229F00046D2F105
:100B6000070204DD40463146FFF7ABFE0AE0524281
:100B700000206249FFF7A5FE02460B46404631467B
:100B800000F06CFE8046662C286B06BF019F0A377A
:100B900006273F18142FC8BF142730208DF80800EF
:100BA00089460DF1090000E03046002F34DD06468D
:100BB0004046494600F076FF01460A4606F1080322
:100BC00004200A26B2FBF6F606EB860EA2EB4E02D6
:100BD000303203F8012C0A22B6FBF2F202EB820E4D
:100BE000A6EB4E063036401E03F8026DE9D1083FF1
:100BF000002F03F10806D7DD084600F067FF024624
:100C00000B464046494600F0B7FD00223C4B00F041
:100C1000ABFB80468946CBE70DF10901401A0DF187
:100C2000090604E00199491E401E0191761C3178A5
:100C30003029F7D0662C02D10199491C03E0652CBC
:100C40000CBF012100212B6BCB189842B8BF431E6B
:100C5000002B1ED4834204DAF05C3528A8BF39206B
:100C600000DA30201946721E02EB010800E05B1E1C
:100C700018F80199491E8145F9D0392802D1705CD4
:100C8000401C7054002904D50198401C16465B1C7A
:100C90000190019800B200901BB23246514628469E
:100CA00000F034F82EE0C61D002F3FF7CFAE3046DF
:100CB0000DF10901401A03465845C8BF5B46002B99
:100CC0000DF109063FF53AAF8342BFF60FAF0DF1C4
:100CD0000900C15C07297FF709AF0F2007E7000073
:100CE000CBCCCC0C0000244002FCFFFFFFFF0F80A8
:100CF0000000E03F0000F07FA08601000000F03F10
:100D000084D797410FB0BDE8F08F00002DE9F84778
:100D100083B006468A461746984600F0FDF9B8F1BA
:100D2000000F406A356B90F8009002DC4FF001082C
:100D3000BFA74AF02000BDF93040662808BF641CF8
:100D400015D0672840F0848014F1040FC0F286802B
:100D5000AC4280F2838096F83800641C010702D40C
:100D6000A845B8BF454620B22D1A48BF00250FFA46
:100D700084FAF068B169BAF1000F25DC4A1C30230F
:100D80004354002D03DC96F83800010703D5F068C2
:100D900000F80290521C15EB0A0FB8BF6C4220B24B
:100DA000441941424445B8BFA046B26171620FFA8E
:100DB00088F5F561F068B3692A463946184400F0B1
:100DC00043FA641BB462C4E022B29045084417DAC7
:100DD0004246394600F038FAB0694044B061AAEBA7
:100DE0000801002D716203DC96F838100A0705D55A
:100DF000F16801F80090F069401CF061B562A8E06C
:100E0000394600F021FAB069002D5044A8EB0408DF
:100E100003DC96F838100A0703D5F16801F8009052
:100E2000401CB0610FFA88F08542F368B069B8BF22
:100E3000A8460FFA88F207EB0A01184400F004FAFA
:100E4000B1690FFA88F00144B161281A706280E03C
:100E5000BAF1610F14D14FF0700A16E0A84504DA18
:100E600096F838100A0758BF45466D1E48BF002542
:100E7000BAF1670F14BF4FF0450A4FF0650A04E05E
:100E8000BAF1410F08BF4FF0500AB169F368481C2E
:100E9000B061002D17F8012B5A5403DC96F8381076
:100EA0000A071BD5F168431CB36101F80090002DBF
:100EB00014DDA8F101080FFA88F039468542F76879
:100EC000B8BFA8460FFA88F2F81800F0BDF9B0696B
:100ED0000FFA88F108446D1AB0617562F068B16963
:100EE0000844002C80F800A003D42B224270811CFF
:100EF00003E02D2141706442811C00206A460AE013
:100F000023460A2493FBF4F404EB8405A3EB450386
:100F100002F8013B401C24B2002CF1DC012806DC65
:100F20004AF02002652A04BF302201F8012B48B99B
:100F3000302001F8010B07E0401E1DF8003030336F
:100F400001F8013B0028F7DCF268B0691044091A87
:100F5000F16196F8380000F0140010280DD1726984
:100F6000B169706A8A18F1698218B06A8A188218A1
:100F7000706B8242BCBF821A326204B0BDE8F08757
:100F8000F8B505460E4617461C46002074B117F802
:100F9000011BB068A847B06030B1F06A401CF06235
:100FA0000020641EF3D1F2BD4FF0FF30F2BD00000F
:100FB0007072696E74665F733A20256E206469737F
:100FC000616C6C6F776564007072696E74663A204C
:100FD00062616420256E20617267756D656E7400B4
:100FE0007072696E74665F733A2062616420257363
:100FF00020617267756D656E740000007072696EB5
:1010000074665F733A2062616420256C732061729C
:1010100067756D656E740000000000000000000040
:101020006E616E004E414E00696E6600494E46008C
:101030003000F0B40246106895681318506803EB4E
:101040005004C0071DD54D441BE013F8017B05F883
:10105000017B491EF9D1A0B1B60813F8011B06F0B7
:101060000306032E08BF13F8016B01EB062149426A
:10107000801C294405D011F8016B05F8016B401E56
:10108000F9D1A3420ED013F8016B16F0030104BF8F
:1010900013F8011BC91C30090F28DAD113F8010B12
:1010A0000F30D6E7F0BC02F10C0070471B487047C8
:1010B00070B45368D418042B09DA41B1057804F8E8
:1010C000015B10F8016B16B15B1C491EF3E753601E
:1010D00070BC704738B514461D4661B1FFF7E8FF94
:1010E00061686A6B204690476FF00102811A02D056
:1010F000491E01D001E003E005E00021616032BD3E
:101100006FF0010032BD4FF0FF3032BDDA6B104797
:10111000024BDFE7014BF9E701487047D00100209F
:1011200098010020C9B202788A421AB11CBF10F897
:10113000012FF9E718BF0020704730B4002513E0F5
:1011400050F8042BD30744BFA9F101039A18091FD3
:10115000042942F8045BFAD213468C0744BF158079
:101160009B1CC90748BF1D7050F8041B0029E7D11C
:1011700030BC704780B500B906A005490B681BB1AB
:1011800022220021984701E000F0ADFC222002BDA0
:10119000BC0A0020636F6E73747261696E7420689C
:1011A000616E646C65723A20626164206D65737370
:1011B0006167650000F1010310F8011B11B110F81F
:1011C000011BFBE7C01A7047C9B2830706D0521E45
:1011D00022D310F8013B9942F7D11FE0083A13D30C
:1011E00002F1040241EA012141EA014150F8043BC5
:1011F000121F21BF4B40A3F1013C2CEA030C1CF051
:10120000803FF3D0C9B2001F083210F8013B521ED4
:1012100028BF91EA030FF8D818BF0120401E70477D
:1012200080B5FFF743FF006C02BDB1F5807F02D3AC
:101230004FF0FF3070470170012070470078401E6A
:101240008041C043C00F70474AB1000011F8013B14
:10125000521E00F8013B1CBF11F8013BF8E7704734
:10126000D3BBD9B1B2F5803F5BD2022A1ED98C46DE
:10127000B1FBF2F102FB11C31B0443EA1043B3FBC1
:10128000F2FC02FB1C3380B240EA0343B3FBF2F0F2
:1012900002FB103240EA0C4000237047022A05D9B5
:1012A0008446B0FBF2F002FB10C270474AB105D190
:1012B00000F0010249085FEA300070470022002375
:1012C000704700F013BC0B000200002100207047A3
:1012D000F7D3002200237047904271EB030CF2D346
:1012E00070B5B1FA81F4B3FA83F52C1BA340C4F1B5
:1012F000200532FA05F63343A2405FF00046E6408F
:1013000002E05B085FEA3202841A71EB030524BF36
:10131000204629467641F4D302000B00300000211C
:1013200070BD70B5B1FA81F4B2FA82F5C4F120044F
:101330006419B4F12006DAD3B2405FF00044F440FF
:10134000002502E052085FEA3303C61A71EB020E71
:1013500024BF3046714664416D41F3D302000B0057
:101360002000290070BD0000B0B581EA030C0CF02C
:10137000004C40F2FF7515EA11541DBF15EA1357D2
:10138000AC42AF4239E0E41923EA455343F48013F9
:10139000C90241F0004141EA505EC7021100A7FBBB
:1013A000020200284FF00000EEFB01204FF0000188
:1013B000E3FB072118BF42F0010240180021494118
:1013C000E3FB0E01A4F580640F0302D252004041FA
:1013D000494154F101046CDD470872F1004250F1BB
:1013E000000051EB0451A1F580115CBF41EA0C01F2
:1013F000B0BD4CEA05510020B0BD05EA1357AC4220
:1014000014BFAF4241E050EA410E1CBF52EA430E06
:1014100002E061460020B0BD24423C441BD15FEA9B
:10142000070EF6D0090302BF01460020AEF1140EEC
:10143000B1FA81F7AEEB070401FA07FE0C37C7F1EA
:10144000200100FA07F7C8404EEA000E23EA455390
:1014500043F48013A2E733F00043B3FA83F704BFE9
:10146000B2FA82FE77440B3FE41BB7F1200E2FBF88
:1014700002FA0EF3BB40C7F1200E22FA0EFE38BF6F
:1014800043EA0E03BA40641C82E750EA410E14BFDF
:1014900052EA430E6FF000014FF4001717EB430FB1
:1014A0008ABF194617EB410FB5E74CEA05510020FA
:1014B000B0BDD4F10104B4F120070FDAC4F1200764
:1014C000520828BF42F0010210FA07F501FA07F7A7
:1014D000E1BF2A43E0403843E1400FE0352C98DC7F
:1014E000C7F1200452EA400220FA07F218BF42F086
:1014F000010231FA07F0A1400A43002172F10042D3
:1015000050F1000051EB0C01B0BD000010B51446C5
:1015100000F002F8226010BDC1F30A5343B14A0043
:1015200012F5001F28D2A3F2FE32A1EB0251704740
:1015300050EA410C20D001F0004C31EA0C01B1FA24
:1015400081F204BFB0FA80F3D2180B3AB2F1200353
:101550002CBF00FA03F1914041EA0C013EBFC2F1F9
:10156000200C20FA0CF319439040524240F2FD3314
:10157000D21A01EB03517047002270474FF4001C50
:101580001CEB410F94BF1CEB430F09E041EA030C35
:1015900050EA4C0C52EA0C0C03D2994208BF90421C
:1015A000704714BF8B428242704700004FF4001C0A
:1015B0001CEB410F94BF1CEB430F09E041EA030C05
:1015C00050EA4C0C52EA0C0C03D28B4208BF824208
:1015D000704714BF9942904270470000124254D4A1
:1015E00040F2FF7C1CEA11530FD0634531D09B18A9
:1015F00063453CBF01EB0251704701F0004141EAF5
:101600000C510020AFF30080704750EA410320D016
:1016100001F0004C91EA0C011CD0B1FA81F30B3BB4
:101620009A420DD9D21A994051EA0C01C3F1200C0B
:1016300020FA0CFC61449840531C40F2FF7CD7E731
:10164000914041EA0C01C2F1200C20FA0CF319433D
:1016500090407047B0FA80F31533202BE0D3202A56
:10166000EED3203A203B9A4209D9D21A00FA03F16C
:1016700041EA0C010020531C40F2FF7CB8E700FA5D
:1016800002F141EA0C0100207047524240F2FF7C17
:101690001CEA11530DD06345DBD0B2EB030C3CBF09
:1016A000A1EB025170470CF1010221EA035141F410
:1016B000801150EA410CCCD001F0004C352A27DCD7
:1016C00030B481EA0C01B2F1200309DAC2F120033F
:1016D000044601FA03F5D0402843D1409C400CE079
:1016E000C3F12002450020FA03F418BF44F00104BE
:1016F00021FA03F091400C43002174F1004550F1B0
:10170000000051EB0C01244230BC7FF47BAF7047EA
:101710006146002076E70000C1F30A5340F2FE3232
:101720009B1A14DDD3F120034FEAE17208DDC902F0
:1017300041EA505141F00040D84080185040704775
:1017400003F2E13010B1D24382F000407047002034
:1017500070470000C11768B14840401AB0FA80F2E3
:101760009040D21CC907C2F5846241EA025202EBE2
:10177000D02140057047000070B44FF0004591EA59
:10178000030F40F1B5816B40841A71EB030603D25D
:10179000001BB141121973414FF4001C1CEB410FA7
:1017A00034BF7CEB430442E00C0DA4EB1356352E02
:1017B0004FDC45EAC323DB0A45EAC121C912B6F171
:1017C00020050DDD63FA05F6EB4086EA03051242BB
:1017D00018BF45F00105C01851F100010CD213E00B
:1017E00062FA06F5F2405540F3415A40B340F340E7
:1017F0005A408018594107D349085FEA30005FEA30
:10180000350528BF45F0010501F58011420875F145
:10181000004250F1000041EB04514E0016F5001F4C
:1018200070BC38BF70470020090D090570471CEBDC
:10183000410F10D252EA43060BD0BCEB410F05D842
:101840000C0DAB43661E342EB6DD02E0AB438018B0
:10185000594170BC704770BC70470000F0B540F251
:10186000FF7581EA030C0CF0004C15EA11541DBF02
:1018700015EA1357AC42AF42E5E0BC41C1F3130196
:10188000C3F31303801A994143F4801304D2641EF6
:101890004000494180185941C90241EA5051B1FB09
:1018A000F3F603FB1611A2FB0675D7EBC020A94186
:1018B00002D2761E80185941C90241EA5051B1FB4B
:1018C000F3FE03FB1E11A2FB0E75D7EBC020A9414E
:1018D00003D2AEF1010E80185941890241EA9051BC
:1018E000760546EA8E2EB1FBF3F603FB1611A2FB3A
:1018F0000675D7EB8020A94102D2761E8018594187
:10190000C90241EA50514EEA060EB1FBF3F603FB61
:101910001611A2FB0675D7EBC020A94102D2761E94
:1019200080185941C90241EA5051B1FBF3F703FB5A
:101930001711A2FB0735D3EBC020A94167F10007BF
:101940000CBF004247F0010766F3D5274FEA1E316E
:10195000B80814F5806412DDBD0775F1004250EB44
:101960000E5051EB045111F5801F5CBF41EA0C0190
:10197000F0BD4CF07F6141F0E0410020F0BDBD07BB
:101980006D0840EA0E5041F48011D4F10104B4F125
:1019900020060ADAC4F120060200E04001FA06F34C
:1019A000E1401843B24015430EE0342C13DCC6F17D
:1019B000200445EA40056D0820FA06F2154321FA95
:1019C00006F0A1400D43002175F1004250F10000E6
:1019D00051EB0C01F0BD00205FEA0C01F0BDCFB966
:1019E00092185B41B3FA83F704BFB2FA82F6BF19CB
:1019F0000B3FB7F120062FBF02FA06F3BB40C7F139
:101A0000200622FA06F638BF3343BA401CB1E41967
:101A1000641E33E77F4231F00041B1FA81F404BF24
:101A2000B0FA80F6A4190B3CB4F120062FBF00FADF
:101A300006F1A140C4F1200620FA06F638BF314372
:101A4000A0403C1B1AE7AC421ABF05EA1357AF424D
:101A500012E050EA41061CBF52EA4306BFE750EAD3
:101A60004107304661461CBF41EA0551F0BD52EACC
:101A7000430C08BFC143F0BD00204FF4001616EB25
:101A8000410F98BF16EB430F08BF16EB410F24BF61
:101A9000C14305E016EB430F0CBF61464CEA05510C
:101AA000F0BD0000400D491840EA81200CD2490DDC
:101AB000A1F58061491C40F0004005DBD1F11F0118
:101AC00054BFC840C017704700207047014648B156
:101AD000B0FA80F18840C91CC1F58461090501EBA9
:101AE000D02140057047012000F0B8B870470000D1
:101AF000841A71EB030604D26E40001BB141121927
:101B000073414FF4001C1CEB410F34BF7CEB4306C8
:101B100083E00C0DA4EB1356362E00F37C80012ECF
:101B200045EAC32341DC43EA525312BFD202920278
:101B30005B08240545EAC12141EA5051D2EBC0209F
:101B4000994125D407D1B0FA80F610FA06F162D097
:101B50000020203608E0B1FA81F6B140C6F120023B
:101B600020FA02F21143B0404FEAF474B4EB465449
:101B700034F001064FEA74040AD8D6F50016760D43
:101B800004F00044F04061FA06F25040F140484051
:101B9000C00A40EA415021F0004128BF5FEA5005E9
:101BA00050F1000044EBD12135E0DB0A45EAC121C8
:101BB000C90AB6F120050EDD42EA0242120CC5F157
:101BC000200603FA06F6EB4042EA06056D4298410C
:101BD00061F100010DE062FA06F5F240554063FA4A
:101BE00006FC82EA0C02F3405A406D42904161EBE0
:101BF000030111F4801F05D1641E620502D06D003F
:101C00004041494121F48011430875F1004350F1EE
:101C1000000041EB045170BC70471CEB410F15D222
:101C200023F0004352EA43060BD04FEA4C0CBCEBC6
:101C3000410F04D80C0D661E342EB7DDEBE7801A79
:101C4000994150EA410608BF0021E4E708BF1CEBB8
:101C5000430F28BF6FF00001DDE7000080B5AFF350
:101C60000080024A11001820ABBEFBE726000200EC
:101C7000F8B58AB004461E236A4602A900F021FC8A
:101C80000028019040F005819DF8000026180021F1
:101C90008DF80010DFF834459DF8000054F820104E
:101CA00002A800F079FB28B100F054F99DF800007B
:101CB0000728F1D39DF80000DFF81475DFF814450C
:101CC0000628A3A5DED8DFE800F004044C6892AB38
:101CD000C70000F0E4F8384600F0A6FD07F1400028
:101CE00000F0A2FD07F1800000F09EFD07F1C000AA
:101CF00000F09AFD07F5807000F096FD07F5A070E2
:101D000000F092FD0FF2E44000F08EFD0FF2F8407B
:101D100000F08AFD0FF2085000F086FD0FF2185017
:101D200000F082FD0FF2285000F07EFD0FF23C50D3
:101D300000F07AFD07F5BC7000F076FD07F5D8706D
:101D400000F072FD07F5F47000F06EFD07F5077006
:101D500000F06AFD07F5147000F066FD00200BB07E
:101D6000F0BD00F09CF807F5247000F05DFD002048
:101D70008DF800000FF210569DF80000217D88427A
:101D80001AD220689DF8001000EBC102304651685D
:101D900000F04AFD00F0DEF8EEE70FF2F44600F046
:101DA0007EF807F5347000F03FFD00208DF800004C
:101DB0009DF80000217D884267D220689DF8007060
:101DC00000EBC7070DF1010378680DF1020202A9CB
:101DD00000F097FB20689DF8001050F8312002A910
:101DE000304600F021FD9DF80000401CDEE700F0C9
:101DF00056F800F057F89DF80000002847D100F091
:101E00004AF88DF8000018B901990FF2984017E0D0
:101E100004283CD10FF2984000F006FD012019E0A3
:101E200000F03DF800F03EF89DF8000000282ED1AB
:101E300000F031F88DF8000028B901990FF28440C4
:101E400000F0F2FC21E0042821D10FF2844000F0E0
:101E5000EBFC0020E07518E000F021F800F022F81B
:101E60009DF8000098B900F016F88DF8000070B9E0
:101E7000019984F8EC1094F8EC00002814BF0FF2DC
:101E800064400FF27C4000F0CFFC284664E702205B
:101E900065E7012063E701A902A800F0A7BA284678
:101EA00000F0C2BC6A4602A9304600F0E8BB7047A9
:101EB000C8490120C8757047F0B591B004460DF1CE
:101EC00003030DF1020209A900F01BFB01003CD144
:101ED00000208DF80000BF4D06E009A901A800F020
:101EE0005BFAB0B100F036F89DF80000297D884219
:101EF0001AD228689DF8006000EBC6070DF10303B5
:101F000078680DF1010201A900F0FBFA0100E4D0AC
:101F10001BE09DF802009DF80110884238BF0220A6
:101F200013D39DF80000A8759DF80000297D884214
:101F300008BF042009D06946204600F002FC0100D9
:101F400003D19DF800006875002011B0F0BD0000BD
:101F50000D0A00009DF80000401C8DF8000070473D
:101F60002DE9F04F9B4D95F81690287D814599B04D
:101F700080F2BF802868041D0DF1190354F8390060
:101F800006AA11A900F0BDFA11A90FF2903000F0D5
:101F90004BFC00270FF21C2B0FF21C2A87A407AE64
:101FA00019E0384600F0BEFB05F12401095846F857
:101FB0002710E87D002814BF0FF26830584600F063
:101FC00033FC9DF81800401E87421CBF7CA000F027
:101FD0002BFC7F1CFFB29DF81800874280F28C809A
:101FE000298B0122BA401142DBD02221204600F089
:101FF0001BFC384600F096FB05F1240101445046D5
:1020000000F012FC2221204600F00EFC384600F0C1
:1020100089FB05F12401084446F82700D1E7079819
:102020005AF83910884744E007985AF83920904701
:102030003FE007985AF8393098473AE000F089F8BD
:10204000C04736E000905AF839800798C04730E022
:102050000090CDF804E000F07CF8C04729E002943D
:102060000090CDF804E000F074F8C04721E0039739
:1020700002940090CDF804E000F06BF8C04718E03F
:10208000366A0496039702940090CDF804E000F0BD
:1020900060F8C0470DE0D6F824C0CDF814C0366A09
:1020A0000496039702940090CDF804E000F051F8F4
:1020B000C04780469DF8190001280AD1E87D002814
:1020C00041460CBF0FF264200FF2682000F0ACFB19
:1020D00002E03CA000F0A8FB3F49087848B14A68FC
:1020E0000A21B2FBF1F10A2000FB112294A000F0BA
:1020F0009BFB19B0BDE8F08F33A000F095FB05F114
:10210000EC01002095F815B0D5F800A0D6F814E041
:102110004860BBF10A0F7168B268F3683069B4694E
:10212000F769C7D8DFE80BF011100F0E0D0C0B0A82
:1021300009080700BEE7AEE7A2E798E78FE787E761
:1021400080E77BE775E76FE769E75AF83900804772
:10215000AFE707985AF8398070470000F8B51F4D6F
:102160002868010425D51E4E1A4FC0B200223254F1
:102170003046B9688847040002D1F868804716E005
:102180003046FFF775FD012801D004000FD0641E12
:10219000032C0CD8DFE804F00204060870A004E069
:1021A00072A002E074A000E076A000F03DFB0020E9
:1021B0002860F1BD256C75002573000025630000C3
:1021C0002C0000003B0D0A00290000001000002038
:1021D0000C570008A4000020900100209C0A002059
:1021E000200700200068704701607047BCBCCAF53A
:1021F000D6A7B3D63A7777772E6F70656E6564761B
:102200002E636F6D0D0A000055534D415254D3D0CB
:1022100037B8F6CFB5CDB3C3FCC1EE3A0D0A000016
:102220003F3A202020202020BBF1C8A1B0EFD6FAF1
:10223000D0C5CFA20D0A000068656C703A2020203E
:10224000BBF1C8A1B0EFD6FAD0C5CFA20D0A0000ED
:102250006C6973743A202020BFC9D3C3B5C4BAAF28
:10226000CAFDC1D0B1ED0D0A0A00000069643A2030
:1022700020202020BFC9D3C3BAAFCAFDB5C449448A
:10228000C1D0B1ED0D0A0A0025730D0A000000004F
:1022900025732069642069733A0D0A305825303857
:1022A000580D0A004845583A305825580D0A000084
:1022B0003136BDF8D6C6B2CECAFDCFD4CABE210DC6
:1022C0000A0000004445433A256C750D0A000000E1
:1022D0003130BDF8D6C6B2CECAFDCFD4CABE210DAC
:1022E0000A00000052756E2054696D652043616CD0
:1022F00063756C6174696F6E204F4E0D0A000000AB
:1023000052756E2054696D652043616C63756C6114
:1023100074696F6E204F46460D0A00000D0A257342
:102320002800000030582558000000003D256C753D
:102330003B0D0A003D305825583B0D0A00000000B7
:1023400046756E6374696F6E2052756E2054696DA8
:10235000653A25642E2531646D730D0A0000000076
:10236000BAAFCAFDB4EDCEF3210D0A00B2CECAFD5C
:10237000B4EDCEF3210D0A00B2CECAFDCCABB6E06F
:10238000210D0A00CEB4D5D2B5BDC6A5C5E4B5C4ED
:10239000BAAFCAFD210D0A0010B5027811F8013B51
:1023A0009A4205D110F8014B002CF6D1002010BD47
:1023B000012010BD027801F8012B10F8013B002B21
:1023C000F8D170470146002000E0401C11F8012BB5
:1023D000002AFAD1C0B270470246012000E0504303
:1023E0000B46591EDBB2002BF9D170472DE9F8439B
:1023F0000026B1464FF00A080246C1F8009005E0F9
:102400004FF00209401C00E0761C521C1378A3F127
:1024100030050A2D0FD305782D2D18BF2B2D01D196
:10242000F5B245B1A3F14104062C04D3582B04BFE7
:10243000F4B2012C3BD1412B0378A8BF4FF0100818
:102440002D2BDDD02B2BDFD14FF00109DAE7012056
:102450002BE00278302A04BF4278582A0ED1801C23
:10246000B61E0C460546F0B200B1761E2878074627
:1024700030380A2834BF303F373F05E0032014E0EE
:10248000002AEED1042010E0F1B24046FFF7A4FF8D
:10249000216800FB0717276015F8010F0028E2D11B
:1024A000B9F1020F04BF7F422760BDE8F2831A0032
:1024B000CDD1B8F1100FF2B2E2D1022AC9DC02206C
:1024C000F3E710B5002414700478202C18BF002CFA
:1024D0000BD010F8014B01F8014B1478641C1470F8
:1024E000E4B29C42F0D3012010BD0020087010BD62
:1024F000411C0878202803D1002918BF491CF8D1B5
:1025000070472DE9FE4D8846012183B007468DF8BE
:10251000091000221D460026ADF80A208DF808207B
:10252000002439460878002813D0202810D004F061
:102530007F02042A0CDC04B9802404F07F02042A00
:1025400001D12A2870D10DF80200641CE4B201E028
:10255000852C69D0491CE5E715F8010F202818BF24
:102560002A280AF1010A06D12846FFF7C1FF2828C8
:102570001CBF2A2856462878282818BF0028EBD1E7
:102580003846F1B211B1F6B28019401CC24621465C
:102590009DF80B709DF80A309DF809E09DF80880C1
:1025A0000446002500201FE0202A18BF282A09D051
:1025B00031B9BCF1040FDCBF0DF80C2008F10108A3
:1025C0000EF1010EFAB2012A04BF5FFA8EF2022A5E
:1025D00009D14FF0030E5B1C05E02C2AE4D1491C05
:1025E0004FF0010EC9B2641C22785FFA88FC6AB30E
:1025F000282A02D150B97F1C08E0292A0ED128B917
:10260000FEB21EB37F1EFEB2002E36D0FEB2002EEA
:10261000E3D1202AE7D00AF8012BE4E7222AF5D1FA
:10262000401E8041C00FF1E70FF2F41B5CB104F0D3
:102630007F0459460DF804606846FFF7ADFE00B10F
:10264000012028700024B2463D4694E71C4601252F
:10265000E0B2012808D100200DF80C005946684668
:10266000FFF79AFE00B900240498047000208AF84D
:10267000000006B02846BDE8F08D1C46E8E7F0B53E
:102680000C4615460346002600220027002142E0A2
:10269000292818BF002800D149B36FBBA0F1300E24
:1026A000BEF10A0F11D32D2818BF2B280DD0A0F191
:1026B000610EBEF1060F24BFA0F1410CBCF1060F64
:1026C00003D3582818BF782804D182B961281EDBAB
:1026D00020381CE0222805D1002A04BF012701214F
:1026E00017D004E0202818BF2C2812D0FF27002084
:1026F00020702F70F0B2F0BD222808BF0021002A00
:10270000F5D131B15C2804BF5B1C761C187804F845
:10271000010B761C5B1C18782C28B9D10029BCD180
:102720000122BAE710B50146002000223B4B03E02E
:102730001C44521CA47E2018D4B28C42F8D3C0B2E0
:1027400010BD2DE9F04F04468946344FB5B00A213B
:1027500007F11A0000F07CF800262278282A45D0DC
:1027600014F8010F0028F8D101203CE09DF8080082
:1027700088B301A902A8FFF739FE00284CD1F0B2B6
:10278000FFF7D0FF019907F1240256461150F2B22B
:10279000388B20EA05053D8304210B2A88F81A109E
:1027A00019DB03201FE002A8FFF70CFE8346F0B2FE
:1027B000FFF7B8FF07F12401014402A8FFF7FAFD73
:1027C000388B56460543F1B23D830BF101000B29CE
:1027D00088F81A00E5DA2078292818BF002806D1E1
:1027E00089F80060002035B0BDE8F08F641C6A46AF
:1027F00002A92046FFF743FF0444F0B207EB0008AC
:1028000001259DF80000B540002806F1010AADD071
:102810000128C8D0FF28DED10220E4E7A400002070
:10282000766F6964000000000EB4C0B5024603A8CC
:1028300000210190009101AB0121044878440C3043
:10284000FDF754FC06BC5DF810FB00BF6F370000BD
:10285000002200F001B80000401810F0030308D077
:10286000C91A1FD3DB0748BF00F8012D28BF20F885
:10287000022D130030B414461546103928BF20E944
:102880003C00FAD8490728BF20E90C0048BF40F8AF
:10289000042D890028BF20F8022D48BF00F8012D23
:1028A00030BC7047C91818BF00F8012DCB0728BFEE
:1028B00000F8012D7047000001B500F004F800F0A9
:1028C0009CFB009802BD4FF6FF7301226946DFF8BA
:1028D000FC03704710B58FA0FFF7A6FFDFF8F043A9
:1028E0002046FFF7A1FF0FF23C410FF22440FFF713
:1028F0009BFF89A10FF23840FFF796FF0FF2584176
:102900000FF24040FFF790FF0FF25840FFF78CFFA7
:102910000FF25840FFF788FF0FF26840FFF784FF7F
:102920000FF27440FFF780FF0FF28840FFF77CFF43
:1029300004F14000FFF778FF2046BDE81040FFF7A4
:1029400073BF2DE9F04100F06DFD044600F06AFD13
:10295000054600F067FDDFF87C13DFF87C230E8866
:102960001768DFF8788303462A4621464046FFF77A
:102970005BFF314608F12800FFF756FF39460FF29A
:102980005040FFF751FF08F14C00FFF74DFF00F0FA
:1029900047FD044621460FF25040FFF745FFC4F3C0
:1029A0000723C4F30742210E08F17800BDE8F04187
:1029B000FFF73ABF00E00000DFF824130860086862
:1029C0000028FCD17047DFF81C13087E02070CD5E5
:1029D0000B78097D1B02400103F4706300F0E000F6
:1029E00043EAD103401C1843704700207047DFF8CA
:1029F000FC0281B0016841F004010160026802F04C
:102A0000040200920099026842F008020260036822
:102A100003F0080300930099026842F0100202607C
:102A2000036803F0100300930099026842F020024B
:102A30000260006800F020000090009801B070472C
:102A400000F007BD7047704710B5FFF7D0FF00F0EA
:102A500075FD00F040FF00F03FFFA548A24C00F0DC
:102A60008FFF00F0C3FF01F005F801F03BF801F023
:102A700061F8002000F077FE002000F0AEFEFFF7C6
:102A8000A2FF606001460FF28030FFF7CDFE606864
:102A9000412804BF0FF28430FFF7C6FE606840F2A1
:102AA000A371884205D1BDE810400FF28430FFF7D2
:102AB000BBBE10BD10B58C4C00200321207061708E
:102AC00001F0D7F80020606110BD10B5012001F0C1
:102AD00022F84FF6FF7001F02BF8642000F0AAFFF7
:102AE00000F0B7FF7E4C00F019F800F0B2FF00F0E4
:102AF00015F880490FF280440020086001F018F8B2
:102B00002046FFF791FE2046BDE8104001F022B9B3
:102B1000000000000D0A0000312E32006421216007
:102B200020680028FCD1642000F084BF38B59621CD
:102B3000002000F0C1FC00286F4C34D06F4D00F035
:102B4000E1F8012807D100F0DDF8012803D1A061E8
:102B5000BCA0FFF769FE4FF4804100F0D5F80128D2
:102B60000DD14FF4804100F0CFF8012807D1E06982
:102B7000401E8041C00FE061B6A0FFF755FE4FF444
:102B8000005100F0C1F801280DD14FF4005100F0C0
:102B9000BBF8012807D1206A401E8041C00F206287
:102BA000B0A0FFF741FE3221012000F085FC002893
:102BB0001EBF5348016800291CBF0FF2B820FFF761
:102BC00033FE4FF47A71022000F076FC642103207A
:102BD00000F072FCB0B1FFF7C1FA206A18B1002111
:102BE000216201F019F9E06960B1607D00210028DF
:102BF00014BF002002206075E161607D401CC0B2FE
:102C000000F0C5FF4FF47A71042000F055FC002855
:102C10005BD0616A29B100BF9BA0FFF705FE0020D1
:102C20006062A16A29B100BF9EA0FFF7FDFD0020F0
:102C3000A062207D002848D000212175227960798A
:102C4000A1798218E0798A18217A8218607A8A1824
:102C5000A17A8218E07A8A1882181C3A217BD2B2B3
:102C60008A4204BF0FF25820FFF7DEFD94F80210ED
:102C700097A0FFF7D9FDE17898A0FFF7D5FD21795E
:102C80009AA0FFF7D1FD61799BA0FFF7CDFDA17957
:102C90009DA0FFF7C9FDE1799FA0FFF7C5FD217A4F
:102CA000A1A0FFF7C1FD617AA3A0FFF7BDFDA17A46
:102CB000A5A0FFF7B9FDE17AA7A0FFF7B5FD217B3D
:102CC000A9A0BDE83440FFF7AFBD31BDDC0800204E
:102CD000CC5B0008E0F7FF1F002004E0245B000845
:102CE000B80A0020D0FF0FE0280A00201810024088
:102CF0009C090020A00A0020FC09002000100140CF
:102D0000500A00204FF40041284601F0AFB90000FE
:102D10002A20C0FDB3CCC3FBB3C62020203A202517
:102D2000730D0A003F3F504B455B3F3F5D00000085
:102D30002A20C0FDB3CCB0E6B1BE2020203A202529
:102D4000730D0A002A20B7A2B2BCC8D5C6DA20206B
:102D5000203A2025730D0A00323031382D30362DBF
:102D6000303600002A200D0A000000002A205151B0
:102D7000202020203A20373338323735373330207F
:102D80000D0A00002A20CDFACDFA20203A206172E7
:102D90006D666C790D0A00002A20456D61696C2012
:102DA0003A2061726D666C794071712E636F6D208F
:102DB0000D0A00002A20CCD4B1A6B5EA3A206172EF
:102DC0006D666C792E6661782E636F6D0D0A00005A
:102DD0002D2D2D2D2D2D2D2D204D43555F49643A40
:102DE000202564200D0A00002D2D2D2D2D2D2D2D9B
:102DF00020536F66745F56657273696F6E3A3078F0
:102E00002578200D0A0000004A5441475F494420BC
:102E10003D203078253278200D0A00005468652066
:102E20004D4355206973205354200D0A00000000C3
:102E3000546865204D4355206973204744200D0A8E
:102E400000000000B0B4BCFC31B0B4CFC2210D0A08
:102E500000000000B0B4BCFC32B0B4CFC2210D0AF7
:102E600000000000B0B4BCFC33B0B4CFC2210D0AE6
:102E700000000000522054696D65735F457863203F
:102E80003D2025640D0A00007379735469636B4417
:102E9000747254696D656D73203D20256C75200D2D
:102EA0000A0000007379735469636B4F7574546939
:102EB0006D656D73203D20256C75200D0A000000A6
:102EC000436865636B206973204F6B0D0A00000037
:102ED0004C656E3A307825780D0A0000566572739D
:102EE000696F6E3A307825780D0A000054483A3000
:102EF0007825780D0A00000054485F4C4F573A304F
:102F00007825780D0A0000006C696768745F616459
:102F10003A307825780D0A00617665726167653A06
:102F2000307825780D0A000053554D3020483A304E
:102F30007825780D0A00000053554D30204C3A306A
:102F40007825780D0A00000053554D3120483A305D
:102F50007825780D0A00000053554D31204C3A3049
:102F60007825780D0A000000434845434B204C3A31
:102F7000307825780D0A0000D7BCB1B8CDEAB1CFC2
:102F80000D0A000038B5040001D1012032BD00F067
:102F900021F808B900F022F800F012F800F023F848
:102FA000FFE7416100F001F832BD2068C16841F4DB
:102FB0000051C1600020686020216970A9707047CD
:102FC000242068702068C16821F40051C160204647
:102FD00000F0D5B904F138056878704700212970F0
:102FE000204601F0A3B82068016921F490410161F5
:102FF0002068416921F02A0170472DE9F843054610
:1030000005F138070C4678782028164698463DD1B9
:10301000002C14BF002E012039D03878012835D07B
:10302000012139700020786021227A7001F024F9A2
:10303000AE848146EE8403E0296814F8010B4860F1
:10304000E88C30B3E88C411EE9844B46A868CDF883
:103050000080B0F5805F0DD100F025F870B92088B0
:103060002968C0F3080048602869002814BF641C60
:10307000A41CE5E700F017F80028DDD0032006E0E7
:103080002020787000213970002000E00220BDE887
:10309000F283CDF800804B460022402100F005F875
:1030A0000028EDD0EAE7002280212846D7E010B5BD
:1030B00000F138039C78202C22D109B1140001D1F1
:1030C000012010BD1C78012C1AD001241C708162D3
:1030D0008285C2850021596022229A701970016888
:1030E000CA6842F48072CA6001684A6942F001020B
:1030F0004A610068C16841F02001C160002010BD34
:10310000022010BD416921F040014161606B7047B0
:1031100038B5044625682968EA686B6911F00F0024
:1031200007D188065DD593065BD52046BDE83240C1
:10313000DCE0D80702D412F4907F52D0C80705D53E
:10314000D50503D5E06B40F00100E063480705D5E5
:10315000DD0703D5E06B40F00200E063880705D58A
:10316000DD0703D5E06B40F00400E063080705D5F8
:10317000DB0703D5E06B40F00800E063E06B00285C
:103180006CD0880604D5910644BF204600F0AEF806
:1031900020684069E16B0A0701D440061BD5204630
:1031A00000F08FF8206841694A060FD5FFF7AAFFA3
:1031B00060B10FF22D114163606B01F063F80028DC
:1031C0004CD0606B416BBDE8344008472046BDE8F9
:1031D000324001F0B5B8204601F0B2F80020E063BB
:1031E00031BD08062AD5130628D594F839002128C0
:1031F00034D1A068B0F5805F206A0BD10188C1F39B
:103200000801696020690028206A0CBF811C411CEC
:10321000216203E0411C216200786860E08C401E5E
:10322000E08480B2D0B92068C16821F08001C1601B
:103230002068C16841F04001C16031BD48060DD52C
:1032400051060BD5E86820F04000E860202184F8A2
:1032500039102046BDE8324001F0ECB831BD2DE90F
:10326000F041069C05460E4690461F4628680168B8
:103270003140B1420CBF01200020404517D114F16C
:10328000010FF3D024B100F0F7FFC01B8442EDD250
:103290002868C16821F4D07100F00CF805F13800FD
:1032A00020214170817000210170032000E0002086
:1032B000BDE8F081C1602868416949084900416161
:1032C00070470168CA6822F49072CA6001684A694E
:1032D000520852004A61202180F83A1070470000DD
:1032E000406A0021C185C18401F02AB880B590F8F8
:1032F0003A10222941D18168B1F5805F12D101696C
:103300000368826A0029596805D1C1F30801118058
:10331000826A911C04E001F0FF011180826A511C55
:1033200081620FE001690029816A04D14A1C82622E
:1033300003685A6805E04A1C826203685A6802F012
:103340007F020A70C18D491EC18589B299B9016891
:10335000CA6822F02002CA600168CA6822F480723A
:10336000CA6001684A69520852004A61202180F807
:103370003A1000F0E7FF002002BD022002BD70B548
:103380000446642522681169E06821F44051014334
:1033900011611926D3681849A0680B4021690343BD
:1033A00060690B430343D3605169A06921F4407104
:1033B000014312485161824202D101F000FB01E059
:1033C00001F0F5FA464360688000B6FBF0F0642136
:1033D000B0FBF1F105FB11052D0132356420B5FB81
:1033E000F0F000F0F00202EB0112216800F00F0093
:1033F0008018886070BD0000F3E9FFFF00380140CD
:1034000080B50A48016841F010010160032001F015
:1034100010FB002001F062FB01F080FB002002BDE8
:1034200003487047034800687047000000200240CE
:1034300000040101E8F7FF1F0901020002D434482B
:1034400081547047334B02F00F021A4402F8041CF7
:10345000704710B5304801684FF47A72B1FBF2F052
:10346000401EB0F1807F0FD22C4C60600F214FF0D6
:10347000FF30FFF7E1FF0021A160072020604FF03F
:10348000FF30BDE81040D7E7FEE72648264A01682E
:10349000491C0160002102EB4100838A5B1C83828E
:1034A00032F8110020B132F81100431E22F8113019
:1034B000491C0A29EFDB70470A2809DA1A4A02EB8D
:1034C0004000838A8B4203D3002181820120704710
:1034D0000020704780B51548154B026819788A1886
:1034E0000F490260086810B10A68521E0A60FFF7AF
:1034F000CCFF1049086848B10A680F48521E0A609C
:103500004FF40061BDE8044000F0BABD01BD000009
:1035100000E400E018ED00E00C00002010E000E006
:10352000B80A0020A80A0020CC09002004000020CE
:1035300000000020980A00200008014078B5E0480B
:10354000E04C85B0016841F0040101604FF4007562
:10355000026802F0040204924FF480760499026833
:1035600042F008020260036803F008030493049920
:10357000026842F010020260036803F01003049333
:1035800001230499026842F0200202608022006850
:1035900000F0200004902046049900920193032239
:1035A00002930392694600F0A1FC0121019102916E
:1035B000009500F08DF8012101910291009600F034
:1035C00087F800F079F8802100F08CF801200321C1
:1035D000019002900391009500F080F800F070F8DF
:1035E000B94D284600F082FC00F066F84FF48041A7
:1035F00000F078F80121019102914FF40046032177
:103600000391009600F06AF800F056F8402100F0AF
:1036100069F800F051F8202103220091039200F094
:103620005DF800F049F8102100F05CF800F044F873
:103630004FF480510091032203926946284600F01E
:1036400055FC00F03DF8284600F050FC00224FF4F5
:103650008071284600F010FD00224FF4804100F0F8
:1036600037F90022314600F033F90022402100F002
:103670002FF90022202100F02BF90022102100F068
:1036800027F90022802100F023F900224FF4007175
:1036900000F01EF900224FF4807100F019F90022A9
:1036A0004FF48051284600F0E7FC002231462846BE
:1036B00000F0E2FC06B070BD012201920292704758
:1036C0000120032101900290039100966946704702
:1036D000032103912046694600F008BC6946204654
:1036E00000F004BC0091032203926946204600F0DA
:1036F000FDBB0146481E0029FBD1704770B5054649
:10370000704E0022802100F09BF800224FF40071DF
:1037100000F096F800F054F81024280454BF00225A
:10372000012200F08BF801224FF4007100F088F8BC
:1037300000F046F800224FF4007100F081F86D00AF
:10374000641EEAD100F079F800F03AF801228021F5
:1037500000F076F800F034F83046BDE87040002202
:10376000802100F089BCF8B50546574E00F065F899
:10377000544F00F02CF800F023F80824280654BF1A
:103780000022012200F01EF8012200F021F800F0D2
:1037900017F800F01CF86D00641EEFD1002200F055
:1037A00011F800F00DF8012200F048F800F008F8D8
:1037B0003046BDE8F84000224FF4807100F05CBC58
:1037C000032096E74FF40041384600F055BC002234
:1037D0004FF48041384600F04FBC70B50546394E75
:1037E0000022402100F02CF800F02DF8FFF7E8FF50
:1037F0000824280654BF00220122102100F020F8DE
:10380000012200F021F8FFF7DBFF00F01CF86D004B
:10381000641EEED10022102100F012F8FFF7D0FF55
:103820000122402100F00CF8FFF7CAFF3046BDE846
:1038300070400022402100F01FBC00224FF4807134
:10384000304600F019BC00222021304600F014BCA4
:1038500010B501001C4C01D1002202E0012804D166
:10386000012200F033F8002206E002280CBF0022FB
:10387000012200F02BF801222046BDE810404FF451
:10388000004100F0F9BB10B501000E4C01D100223F
:1038900002E0012804D1012200F018F8002206E01D
:1038A00002280CBF0022012200F010F801224FF480
:1038B000005100F00DF8BDE81040052019E70000A8
:1038C00018100240000C0140000801404FF48051E4
:1038D000204600F0D1BB704718B585B0684610216E
:1038E00001F03EF92348046844F0100404600168C4
:1038F00001F0100104910499026842F00402026090
:10390000036803F0040304930499026842F0080278
:103910000260036803F0080304930023049902681B
:1039200042F0200202608022006800F02000049033
:1039300004991148009201210291032201930392FC
:10394000694600F0D3FA082100910022019201217A
:103950000291032203926946084800F0C7FA06B0B4
:1039600010BD8021044800F081BB0821034800F00D
:103970007DBB00001810024000080140000C01400F
:1039800030B585B0044601A8102101F0E9F824689B
:10399000134DAC4222D11348016841F4007101601B
:1039A0000323026802F4007200920099026842F058
:1039B000040202601322006800F0040000900099E5
:1039C0000192029301A9084800F090FA0022002118
:1039D000122001F03BF8122001F055F805B030BD7F
:1039E00000240140181002400008014000B51E48A4
:1039F00085B0016841F0040101604FF40062006885
:103A000000F00400009001230099184801920293ED
:103A100003220393049201A900F068FA05B000BDE7
:103A2000124B002814BF012200224FF400611846F7
:103A300000F022BB0E4901220A70486070470C4812
:103A400000210170002242604FF40061074800F03D
:103A500013BB10B5064C01E0FFF7F1FF60680028CA
:103A6000FAD110BD0000000018100240000801400B
:103A7000940A002018B51648164C85B0016841F02C
:103A8000100101604FF40042006800F01000049043
:103A9000002304990092012102910322019300F076
:103AA0001BF800214FF48042019100920321012272
:103AB0000391029200F011F84FF40051009100229E
:103AC000019201210291032200F006F806B010BD18
:103AD000181002400010014003926946204600F091
:103AE00005BA000000B5104885B0016841F0080132
:103AF00001600222006800F0080000900123009994
:103B00000A480192029303220393049201A900F050
:103B1000EDF905B000BD0028044B14BF01220022BE
:103B20000221184600F0A8BA18100240000C01400B
:103B3000FFF7E4BD18B52348234C85B0016841F078
:103B4000040101602022006800F0040004900123B9
:103B5000049900920193032202930392694620463E
:103B600000F0C4F901210191029140220321039147
:103B700000926946204600F0B9F9002200F026F8CC
:103B800000224021204600F077FA06B010BD10B5A3
:103B900001280D4C08BF01220BD0022801D10022C0
:103BA00002E0032804D1012200F010F8012203E012
:103BB000002200F00BF800222046BDE81040402112
:103BC00000F05ABA18100240000801402021204697
:103BD00000F052BA30B52B48AA210170417040F272
:103BE000D1534FF478718160436040F24D610161BF
:103BF000016540F6BA0240F22E239424C26083612C
:103C0000C46140F2C171816540F25552002340F217
:103C10008D144261036243628362C3620363436340
:103C20008363C36344644265002101664166816623
:103C3000C166016741678167C16740F25B15124B3E
:103C40004FF41B7440F2077203648564C464C26558
:103C5000C0F88030BE2140F8841F1E2296214260A9
:103C6000C160002370222921036142618161C36127
:103C700030BD04480178AA2906BF4078AA28FFF77A
:103C8000A9BF7047E8070020801A060001B5ACE024
:103C900038B5040009D00A2094FBF0F52846FFF758
:103CA000F7FF0A2101FB154437E031BD70B504462A
:103CB0000D46FDF731FD0646FFF7EAFF2E20FFF720
:103CC000E5FF3046FDF746FD02460B4620462946F5
:103CD000FDF752FD00224B4BFDF746FBFDF71CFDA7
:103CE000BDE87040D4E710B5044603E014F8010BBA
:103CF000FFF7CCFF20780028F8D110BD38B50400BC
:103D000003D1BDE832403DA0EDE704EBD4756D1062
:103D10002846FFF7F3FFA4EB45043034E0B2BDE8DA
:103D20003240B3E738B5040003D1BDE8324034A0D7
:103D3000D9E7E11004EB11752D112846FFF7F2FFCA
:103D4000A4EB05100A2CBDE83240B4BF3030573028
:103D5000C0B29BE70EB430B5044603AD02E0FFF7F6
:103D600095FFA41C207800283ED0252837D1607804
:103D70002528F4D0422828D058282BD0622824D0D7
:103D800063280AD064280CD066280FD0692808D090
:103D9000732815D078281DD0E3E755F8040BC0B27E
:103DA000DDE755F8040BFFF773FFDAE7ED1D25F0AB
:103DB000070202F10805D2E90001FFF777FFD0E71B
:103DC00055F8040BFFF78FFFCBE755F8040BFFF70F
:103DD00095FFC6E755F8040BFFF7A4FFC1E714F8F9
:103DE000010BFFF753FFBDE713E04FF6FF7301220E
:103DF00069460548FFF701F901BD00003062000087
:103E00003078000080842E411C09002028460DF5E2
:103E1000806D30BC5DF810FB2DE9F0412149224A4C
:103E2000D1F8A000214C0FF29C08214E214F224DC9
:103E30001060FFF77DFE00F041F8FFF70AFE00F08A
:103E400093FE0120FFF78FFC0020FFF7C6FC204601
:103E5000FEF7EAFC2046FFF77DFF4FF47A70FEF78D
:103E6000A9FD0020FFF764FE0020FFF7F1FC002011
:103E7000FFF709FD18A428780028FCD0002129703C
:103E80003878FA2806D17878FA38306040463178A8
:103E9000FEF7CAFC38783228EDD132212046FEF7F1
:103EA000C3FCE8E7E8070020A00A0020EC5F000858
:103EB000A40A00206C0A0020C40A00206420FFF736
:103EC000B9BD00006C696768745F6164203D203093
:103ED0007825780D0A00000056455253494F4E2070
:103EE0003D20307825780D0A000000002DE9F847C4
:103EF0000027BE466A4A6B4B4FF00F0882460BE024
:103F0000D6683040D06006E094604C68A402F7D5D3
:103F1000D0680643D6607F1C0E6836FA07F000F0C2
:103F2000A380012000FA07F52E40AE42F3D1486885
:103F300058B301281AD002281FD0032833D01128E3
:103F400017D012281DD0584CA0421CBF574CA0427D
:103F50001BD0574CA0421CBF564CA04215D0564C0B
:103F6000A0421CBF554CA0420FD01EE0D1F80CE07F
:103F70001BE0C86800F1040E17E0C86800F1080EE5
:103F800013E0C86800F10C0E0FE0886810B94FF01C
:103F9000040E0AE001284FF0080E14BFCAF81450AE
:103FA000CAF8105001E04FF0000EB6F5807F03D242
:103FB00050464FEA870C05E0A7F108040AF1040017
:103FC0004FEA840C046808FA0CF5AC430EFA0CF5C1
:103FD0002C4304604868C0009DD51868DFF8E0C035
:103FE00040F0010018601C6804F001040094BC005B
:103FF0000098B8085CF8205004F00C0408FA04F9A2
:1040000025EA09092F4DAA4508BF00250ED02E4DDF
:10401000AA4508BF012509D02C4DAA4508BF022595
:1040200004D02B4DAA450CBF0325042505FA04F442
:1040300044EA09044CF82040F0434C68E403146857
:104040004CBF3443044014604C68A40354684CBF14
:104050003443044054604C689568E4024CBF46EA1F
:10406000050400EA05044FE7BDE8F18780680840D1
:1040700018BF0120C0B2704702B90904016170473E
:10408000C2680A4201D04161704701617047114A1C
:10409000136803421CBF106000F0CDB970470000E8
:1040A000000401401810024000001110000012101E
:1040B000000021100000221000003110000032101A
:1040C0000800014000080140000C014000100140C0
:1040D000001401401404014080B55E485E4900F0C0
:1040E0000BF800B116E001BD80B55C485C4900F0FA
:1040F00003F800B10EE001BD01604FF4E13200238E
:104100000C2142608360C360036141618361C361CC
:10411000FEF738BFBDE8014000F004BE80B551484D
:104120005149FFF7E9FF00B1F4E701BD30B585B0B3
:1041300004466846102100F013FD2168464A4B4DA5
:104140004B4891424FF480641CD1016841F4804196
:104150000160026802F48042049200F066F84FF4B5
:10416000007100F068F80021019102910094694605
:104170002846FFF7BBFE00220021252000F066FC48
:1041800025204EE0364A91421CD1416841F400316D
:104190004160416801F40031049100F046F80421C7
:1041A00000F049F808200021009001910291284672
:1041B0006946FFF79BFE00220021262000F046FC06
:1041C00026202EE0284A91422DD1416841F48021D9
:1041D0004160416801F4802104910499026842F031
:1041E000080202600222036803F0080304930499A2
:1041F000009403210391019269461E4C2046FFF76B
:1042000075FE4FF40060002100900191029120465C
:104210006946FFF76BFE00220021272000F016FC04
:10422000272000F030FC05B030BD0499026842F050
:10423000040202607047006800F00400049002224B
:104240000498009101920321039128466946FFF7E3
:104250004DBE0000DC080020003801401C09002091
:10426000004400405C090020004800400008014074
:1042700018100240000C014001484068704700BF20
:104280000000002038B590F821200024022A00F117
:10429000340103D00420486001243BE00268136825
:1042A00023F00E0313600268DFF8783015686D089C
:1042B0006D00156002689A4208BF012222D0DFF823
:1042C00068309A4208BF10221CD0DFF860309A4252
:1042D00008BF4FF4807215D0DFF854309A4208BFFF
:1042E0004FF480520ED0DFF84C309A4208BF4FF4A2
:1042F000803207D0DFF840309A420CBF4FF4801272
:104300004FF08072DFF834301A6000F005F8096869
:1043100001B18847204632BD012280F8212080F873
:1043200020407047080002401C000240300002405C
:1043300044000240580002406C0002400400024069
:1043400070470000F8B50068644988423FD1644E68
:10435000644C3278257864496448654F8D54521C0A
:104360000B78FA2B04D0322B0AD0002008700FE013
:10437000D3B2042B0DD101223A700A68026007E023
:10438000D3B20A2B05D101233B700A22FCF75CFF54
:1043900000225848327001680A0415D44B0404D531
:1043A0000A2D0FD141F400410DE00D2D08BF41F45D
:1043B000804108D0504AC1F30D03491CD554C82987
:1043C000016001D3002101604C4D01221DE04C49E8
:1043D000884220D14B4D4C4C2A7820784B49885448
:1043E000521CD6B2022E01DA55280AD18B78D0B2EF
:1043F000984207D1464E01203070D2B24548FCF7B2
:1044000023FF00222A700122434D21462846FEF751
:104410004EFE286809E0414988420AD1404C414992
:1044200001222046FEF743FE2068C16841F02001CA
:10443000C160F1BD704770B5014601293A4C3B4D52
:104440003B4E3C4814D0022912D0082912D0102922
:1044500022D0202920D040291ED080291ED0B1F59D
:10446000005F1CBFB1F5804FB1F5004F2AD070BD81
:10447000304627E02046FFF7F9FD2F4E10B9286897
:10448000306070BD08212046FFF7F0FD01281DD1E6
:1044900029683068294A12E0204613E03046FFF7C9
:1044A000E5FD274C10B92868206070BD802130469A
:1044B000FFF7DCFD012809D129682068214A091A83
:1044C000116070BDBDE87040FFF7D0BD70BD80B514
:1044D00000F01EFD1C49086001BD000000380140CD
:1044E000C30A0020C00A0020580A00206C0A0020DD
:1044F000C40A00209C0A002020070020DC080020BD
:1045000000440040C50A0020C10A0020800A0020A3
:10451000100A0020FC0900201C090020004800406F
:104520005C090020C20A0020000C0140A80A0020FB
:104530000008014000100140B00A0020240A0020B9
:10454000AC0A0020200A0020B40A00202DE9F8431C
:10455000040016D02078DFF87C64C10713D570689A
:1045600000F00C00042807D0706800F00C00082848
:1045700040D17068C1033DD53068810303D56068C0
:10458000002800F0F4802078DFF85874810719D5EE
:10459000706810F00C0F07D0706800F00C0008284D
:1045A00060D17068C1035DD43068810703D520698C
:1045B000012840F0DC803168606921F0F80141EAAF
:1045C000C00131602178080770D5A069DFF81814A0
:1045D000002865D001220A60FFF74EFE0546706A8A
:1045E000810700F1C680FFF747FE401B0228F6D97D
:1045F000032035E16068B0F5803F04D1306840F4B5
:104600008030306014E008B930680AE0B0F5A02FBF
:10461000306806D140F480203060316841F4803148
:1046200005E020F480303060316821F48021316071
:10463000606858B1FFF720FE054630688103A2D4B8
:10464000FFF71AFE401B6528F7D3D1E7FFF714FEEA
:1046500005463068810396D5FFF70EFE401B65289E
:10466000F7D3C5E7206970B101213960FFF704FE77
:1046700005463068810700F1B680FFF7FDFD401B5D
:104680000228F6D9B4E73860FFF7F6FD0546316831
:10469000880797D5FFF7F0FD401B0228F7D9A7E759
:1046A0000860FFF7E9FD0546706A810770D5FFF7DE
:1046B000E3FD401B0228F7D99AE708B9306A09E000
:1046C0000528306A06D140F004003062306A40F0BC
:1046D000010005E0400840003062306A20F004002C
:1046E000306241F28938E06868B1FFF7C5FD814664
:1046F000306A810700F18480FFF7BEFDA0EB09005E
:104700004045F5D374E7FFF7B7FD8146306A81076E
:1047100076D5FFF7B1FDA0EB09004045F6D367E77A
:10472000FFF7AAFD401B02287BD961E7FFF7A4FD34
:10473000001B022840F28F805AE700F093F80446ED
:104740003068810140F18B80FFF796FD001B022845
:10475000F6D94DE701280AD07068226A00F480314A
:10476000914202BF00F47010616A884277D0012044
:1047700076E0DFF864020168C9084FF47A72B1FB91
:10478000F2F2009200BF0098411E00280091F9D17A
:104790002078410739D5F0690025C10009D4F069B6
:1047A00040F08050F0610125F06900F080500090E9
:1047B0000098DFF83882D8F80000C1051BD4D8F87B
:1047C000000040F48070C8F80000FFF755FD8146F6
:1047D000D8F80000C1050ED4FFF74EFDA0EB09008C
:1047E0006528F5D304E73068616920F0F80040EAF5
:1047F000C1003060E6E6E06801287FF45EAF65E75F
:104800001DB1F06920F08050F061E06938B3716843
:1048100001F00C0108299DD002288ED100F022F869
:104820000546306881013FF57BAF206AB0F5803FD7
:1048300005D17168A06821F400310143716072688C
:10484000206A616A22F4741202430A4372600120F2
:1048500000F009F80446306881017FF567AF002059
:10486000BDE8F28300203866FFF706BD2DE9F04170
:104870000400884672D05E4E00F077F802D200F055
:104880006FF86BD12068534D810712D5400703D5CF
:10489000696841F4E06169602078010703D56868C0
:1048A00040F4605068606968A06821F0F00101433D
:1048B00069602178C80749D56068012802D1296854
:1048C0008A0303E00228296802D18A0102D445E064
:1048D0008A0743D56968890840EA81006860FFF764
:1048E000CBFC07466868616800F00C00B0EB810FF4
:1048F0002CD0FFF7C1FCC01B41F289318842F1D3B3
:10490000032021E02078410705D56A68E06822F499
:10491000E06202436A602178080706D56968206969
:1049200021F4605141EAC001696000F023F86A682F
:104930003049294BC2F30312895CC84018602848EB
:10494000006800F0CBF80020BDE8F081306800F08E
:1049500007008045D6D200F003F8D3D00120F3E75A
:104960003168C90848EAC1013160306800F00700C9
:1049700040457047204919480A6802F00C03082B8B
:1049800000D0704710B500BF1EA4C2F38343D2030A
:10499000E35C08D5096858431EA3C1F340415A5C43
:1049A000B0FBF2F010BD18461449484310BD0A4848
:1049B000114A006813681249C3F3022206E0064850
:1049C0000D4A006813680E49C3F3C222895CC840CF
:1049D00070470000001002400C00002000127A0016
:1049E0000800002000004242800442420070004063
:1049F00000200240805C00080410024000093D00D5
:104A00001060000802030405060708090A0B0C0DD4
:104A10000E0F1010010200000901020002D4294803
:104A200081547047284B02F00F021A4402F8041C0C
:104A30007047264B19684FF6FF020002114000F440
:104A4000E0600843224908431860704738B51F4B9F
:104A50001C68C4F30223C3F10704052C28BF0424F7
:104A60001D1D072D34BF0023DB1E012505FA04F4AC
:104A7000641E2140994005FA03F35B1E1A4011435E
:104A8000BDE83440C8E7010007D4012200F01F014F
:104A9000104B8A40400943F82020704710B5401E53
:104AA000B0F1807F01D3012010BD0B4C60600F215D
:104AB0004FF0FF30FFF7B0FF0021A160072020601A
:104AC000002010BD00E400E018ED00E00CED00E077
:104AD0000000FA0500E100E010E000E038B50D4DFF
:104AE0000D4B2A7804464FF47A711868B1FBF2F244
:104AF000B0FBF2F0FFF7D2FF50B9102C08D2002221
:104B000021464FF0FF30FFF7A1FFAC60002032BD1F
:104B1000012032BD000000200C0000200E4881B0B2
:104B2000016841F001010160026802F00102009297
:104B30000099426842F080524260406800F0805024
:104B4000009000980548016821F0E06141F0007193
:104B5000016001B0704700BF18100240040001401E
:104B6000002200F037BB000070B5002400260025AD
:104B70004FF49871134861434C2201446A438818EA
:104B800000F13401067046608660C66006744661B6
:104B90008661C661066246628662C66206630E7000
:104BA0004E708E70CE700E714E718E7110213B3032
:104BB000FDF74EFE6D1C042DDADB641C042CD6DBE5
:104BC00070BD00006002002010B5FEF719FC00F077
:104BD00072F800F019FB00F0A5FBFFF77DFAFFF774
:104BE00083FAFFF79BFA00F013FC00F01CFC00F0C6
:104BF00034FC00F097FB234C204600F00FF92046D0
:104C000000F042FC204C214901222046FEF74FFAD9
:104C100020681F4C00F046F81E49FEF748FA20684D
:104C20001D4C00F03FF81D49FEF741FA2068C168AD
:104C300041F02001C1600022026072B6FDF74AFE19
:104C4000174C2046FDF7F0FD04F14800FDF7ECFDA0
:104C500004F19000FDF7E8FD04F1DC00FDF7E4FD50
:104C6000FDF76FFEFDF7ECFEFDF7ECFEFDF7EBFE4A
:104C7000FDF7EAFEFDF71EFF62B6FDF726FFFDF722
:104C800055FFFCE79C090020DC080020C00A00203A
:104C90001C090020C10A00205C090020C20A002073
:104CA0001C5A0008C16841F02001C1600022026066
:104CB00020460122704700B593B009A82821FFF7CC
:104CC0004FFF04A81421FFF74BFF68461021FFF7A0
:104CD00047FF4FF4803100220A910B92119101207D
:104CE00009900D9002224FF4E0111092129109A840
:104CF000FFF72CFC022105910F204FF480610490F6
:104D00000022079106920892022104A8FFF7AEFD47
:104D100002214FF4004200910292684600F01CFC10
:104D200013B000BD70470000F8B504460027002608
:104D3000002C71D004F12405686820B9AE60287099
:104D4000204600F02DFB204600F022FA6968CA06D2
:104D50005ED401005CD1696821F4885141F0020100
:104D600069606368E269217B1343A268B2F5807FC2
:104D700014BF012A4FF48077227D012A43EA4103C0
:104D80000FD131B9A169491E490341F400610F43B4
:104D900007E0696841F020016960A96841F00101FC
:104DA000A96021684A6822F4694217434F6022686B
:104DB000DFF8B81397680F401F439760A168B1F5FB
:104DC000807F18BF012902D12669761E3605216829
:104DD000CA6A22F470021643CE622468DFF8901388
:104DE000A2680A409A4208D10023AB60696821F0AA
:104DF000020141F001016960F2BD686820F0020023
:104E000040F010006860A86840F00100A86003E06E
:104E1000686840F0100068600120F2BD70B500F0D5
:104E200025F801D1022070BD00F058F801001CD116
:104E30006A68DFF8401300F03EF80DD10E6816F4F2
:104E4000702F09D000F029F86B68DE0446BFAB680C
:104E500023F00603002305E000F011F8F4D500F07C
:104E600015F8F1E700F032F83CE005E0044604F103
:104E700024052878012870470021297070BD6E68CC
:104E800026F480166E605B685E0570476B6823F4DD
:104E9000005343F480536B6070476B6843F4801396
:104EA0006B600E68730505D56E6826F4005646F4EF
:104EB00080566E6070470A4042F480726A602368D0
:104EC000DFF8B822DFF8B81293427047AB600026D3
:104ED0002E706FF0020325682B6070470120287048
:104EE00020460EE123689C6804F46024B4F5602F2A
:104EF00009D1934203D1096811F4702F03D1996845
:104F000041F4A00102E0996841F48011996070BDFC
:104F10000068C06C704710B5044621684868820676
:104F200022D5086882071FD5A06AC20603D4A06AEA
:104F300040F40070A06200F05AF804BF207B002803
:104F40000BD1486820F020004860A06A20F48070EF
:104F5000A062A06AC10400F050F82046FFF7B7FA3B
:104F600021686FF0120008602168486802062BD59E
:104F70000868420728D5A06AC20603D4A06A40F494
:104F80000050A062886800F4E040B0F5E04F08D01F
:104F90004868420511D400F02AF804BF207B00289D
:104FA0000BD1486820F080004860A06A20F480504F
:104FB000A062A06AC10500F020F8204600F0CAFAFD
:104FC00021686FF00C000860206841684A060DD522
:104FD0000068C1070AD5A06A40F48030A06220466C
:104FE00000F093FB21686FF00100086010BD886835
:104FF00000F46020B0F5602F704703D4A06A40F041
:105000000100A0627047F8B50A46002100F12403B0
:1050100000911C78012C01D10220F2BD01241C70EA
:105020001F27546815680668072C08D2641E04EB15
:105030008404D6F834C000F05EF8756312E00D2CDD
:1050400008D2E41F04EB8404D6F830C000F053F813
:10505000356307E00D3C04EB8404D6F82CC000F067
:105060004AF8F56207271668946805680A2E08D37F
:105070000A3E06EB4606D5F80CC000F036F8EC60A8
:1050800006E006EB4606D5F810C000F02EF82C61BD
:105090001468102C18BF112C23D10068394CA04281
:1050A0001AD1394805682C021BD4056845F400055F
:1050B00005601068102814D12F4A344D1468B4FBD1
:1050C000F5F50A2045430095009800281EBF00987A
:1050D000401E0090F8D104E00121586840F0200003
:1050E0005860002018700846F2BDB7402CEA070748
:1050F000B4403C437047A7402CEA0707A5403D4316
:10510000704738B504460020009020688168CA07BF
:105110002AD481681D4A41F0010181601648016866
:10512000B1FBF2F2009202E00098401E009000985D
:105130000028F9D1FFF7A0F8054620688168C80764
:1051400012D4FFF799F8401B0328F6D304F124008A
:105150000022416841F010014160816841F0010185
:1051600081600270012032BD002032BDFDF7E1FFF9
:10517000FE0E1FFFFEFDFFFF0C0000200028014077
:1051800004240140002401400824014040420F0053
:1051900038B5044620688168CA0719D5816849086E
:1051A00049008160FFF768F8054620688168C807F4
:1051B0000ED5FFF761F8401B0328F6D3A06A40F034
:1051C0001000A062E06A40F00100E062012032BD00
:1051D000002032BD00B500BF13009646944610393A
:1051E00028BFA0E80C50FAD85FEA417C28BF0CC069
:1051F00048BF40F8042BC90728BF20F8022B48BF3E
:1052000000F8012B00BD000078B585B0684610217C
:10521000FFF7A6FC3B483C4E046844F010040460D1
:105220004FF2F6350168394C01F0100104910499F0
:10523000026842F020020260036803F02003049336
:105240000499026842F004020260036803F0040358
:1052500004930499026842F0080202600022006888
:1052600000F0080004904FF41E6104982046FEF7F9
:1052700003FF002229463046FEF7FEFE4FF4604051
:1052800000F04AF869462248FEF730FE4FF41E61EE
:1052900000910122019200210291022203926946AB
:1052A0002046FEF723FE012000F036F8304669461E
:1052B000FEF71CFE012002210190002203910292C0
:1052C000009569463046FEF711FE4FF4104000F09D
:1052D00023F820466946FEF709FE08200D49009094
:1052E00001910022029269463046FEF7FFFD00223E
:1052F00000210920FFF7AAFB0920FFF7C4FB06B035
:1053000070BD000018100240000C01400008014070
:105310000010014000003110002100900191029125
:10532000704700003EB5684600210022002380E857
:105330000E004FF48070324C324DA060626001204C
:105340002075A06103224FF46020E0612173226187
:1053500025602046FFF7E8FC08B1FFF7E3FC0020DA
:105360000121009001910222029200F015F808B18B
:10537000FFF7D8FC01210091022200F00CF808B1DF
:10538000FFF7D0FC04210091032200F004F808B1DB
:10539000FFF7C8FC37BD019269462046FFF733BED0
:1053A00030B585B0044601A81021FFF7D9FB246869
:1053B000144DAC4222D11448016841F400710160DF
:1053C0000323026802F4007200920099026842F01E
:1053D000040202601322006800F0040000900099AB
:1053E0000192029301A90948FEF780FD00220021E5
:1053F0001220FFF72BFB1220FFF745FB05B030BD55
:105400009C090020002401401810024000080140BF
:1054100080B51748174901604FF4614200F00EF85B
:1054200000B116E001BD80B51348144901604FF486
:10543000E13200F003F800B10BE001BD00230C21C4
:1054400042608360C360036141618361C361FDF7B2
:1054500099BDBDE80140FFF765BC80B50848094922
:1054600001604FF41652FFF7E9FF00B1F1E701BD0B
:10547000DC080020003801401C09002000440040E6
:105480005C09002000480040F8B50446002004F103
:10549000240600903178012901D10220F2BD0120BB
:1054A00030702046FFF774FE050047D1706820F485
:1054B000885040F002007060022000F0BBF800F05D
:1054C00041F8400001E00098401E0090009800283C
:1054D000F9D12046FFF715FE2068816841F00801E8
:1054E0008160FEF7C9FE0746206881680A0714D567
:1054F000FEF7C2FEC01B0B28F6D304E0FEF7BCFE8D
:10550000C01B0B2810D3706820F0020040F0100080
:105510007060002030700120F2BD816841F004010C
:105520008160FEF7A9FE0746206881684807E5D438
:10553000716821F0020141F00101716000203070BA
:105540002846F2BDDFF808100A68B2FBF0F0704799
:105550000C000020704700002DE9FC410646604D1C
:105560003078C10750D5A8690024C10009D4A869C2
:1055700040F08050A8610124A86900F0805000909C
:105580000098584F3868C10519D4386840F48070C5
:105590003860FEF771FE80463868C1050FD4FEF70B
:1055A0006BFEA0EB08006528F6D303203FE0FEF772
:1055B00063FEC01B41F28931884217D3F5E7E869E1
:1055C00010F440701EBF716801F44071884210D021
:1055D0004549E86901220A60002320F440700B600D
:1055E000E861C00705D5FEF747FE0746E869810771
:1055F000DDD5EA69706822F440720243EA611CB1A9
:10560000A86920F08050A8613078810705D52A6804
:10561000B06822F4404202432A603178C80605D5BA
:105620002968F06821F48001014329600020BDE869
:10563000F681000010B5002101282C4C25D002284D
:1056400043D010284AD160682268D30146D500BFF4
:1056500029A1C0F38342C003895C0CD5606800BFF8
:1056600029A3234AC0F34040185CB2FBF0F308467C
:105670001946414301E01F4A5143606842022DD45C
:1056800049000320B1FBF0F128E0206A40F2023229
:105690000240B2F5817F08BF4FF400411ED000F4F4
:1056A0004072B2F5007F05D1626A930748BF49F6A0
:1056B000404113D400F44070B0F5407F0ED1206813
:1056C00082030BD54FF2244108E0FFF778F96168B7
:1056D000C1F38131491C4900B0FBF1F1084610BD0E
:1056E000041002400070004040044242001002409A
:1056F00000127A0000093D000203040506070809AC
:105700000A0B0C0D0E0F1010010270472D2D2D2DC0
:105710002D2D2D2D2D2D2D2D2D2D2D2D2D2D2D2DB9
:105720002D2D2D2D55534D4152542056332E312DB4
:105730002D2D2D2D2D2D2D2D2D2D2D2D2D2D2D2D99
:105740002D2D2D2D2D2D2D200D0A00002020202067
:1057500055534D415254CAC7D3C9414C49454E5483
:10576000454BBFAAB7A2B5C4D2BBB8F6C1E9C7C9F9
:10577000B5C4B4AEBFDAB5F7CAD4BBA5BDBBD7E9D3
:10578000BCFE2CCDA8B9FD200D0A0000CBFC2CC41A
:10579000E3BFC9D2D4CDA8B9FDB4AEBFDAD6FACA38
:1057A000D6B5F7D3C3B3CCD0F2C0EFC3E6B5C4C807
:1057B000CEBACEBAAFCAFD2CB2A2D6B4D0D02ED2B9
:1057C000F2B4CB2CC4E3BFC90D0A0000D2D4CBE69F
:1057D000D2E2B8FCB8C4BAAFCAFDB5C4CAE4C8EBDB
:1057E000B2CECAFD28D6A7B3D6CAFDD7D628313047
:1057F0002F3136BDF8D6C629A1A2D7D6B7FBB4AE95
:10580000A1A2BAAFCAFDC8EB0D0A0000BFDAB5D835
:10581000D6B7B5C8D7F7CEAAB2CECAFD292CB5A542
:10582000B8F6BAAFCAFDD7EEB6E0D6A7B3D63130D8
:10583000B8F6CAE4C8EBB2CECAFD2CB2A2D6A7B362
:10584000D6BAAFCAFDB7B5200D0A0000BBD8D6B591
:10585000CFD4CABE2ED0C2D4F6B2CECAFDCFD4CADF
:10586000BEBDF8D6C6C9E8D6C3B9A6C4DC2CD0C222
:10587000D4F6BDF8D6C6D7AABBBBB9A6C4DC2E0DDC
:105880000A0000006865783A20202020B2CECAFDC8
:105890003136BDF8D6C6CFD4CABE2CBAF3B8FABFDB
:1058A000D5B8F12BCAFDD7D6BCB4D6B4D0D0BDF88C
:1058B000D6C6D7AABBBB0D0A0A0000006465633ACE
:1058C00020202020B2CECAFD3130BDF8D6C6CFD4BC
:1058D000CABE2CBAF3B8FABFD5B8F12BCAFDD7D6D9
:1058E000BCB4D6B4D0D0BDF8D6C6D7AABBBB0D0ABF
:1058F0000A00000072756E74696D653A312CBFAA9A
:10590000C6F4BAAFCAFDD4CBD0D0BCC6CAB13B3006
:105910002CB9D8B1D5BAAFCAFDD4CBD0D0BCC6CA89
:10592000B13B0D0A0A000000C7EBB0B4D5D5B3CC2B
:10593000D0F2B1E0D0B4B8F1CABDCAE4C8EBBAAF96
:10594000CAFDC3FBBCB0B2CECAFDB2A2D2D4BBD892
:10595000B3B5BCFCBDE1CAF82E0D0A002D2D2D2DCE
:105960002D2D2D2D2D2D2D2D2D2D2D2D2D2D2D2D67
:105970002D2D2D2D2D2D414C49454E54454B2D2D72
:105980002D2D2D2D2D2D2D2D2D2D2D2D2D2D2D2D47
:105990002D2D2D2D2D2D2D200D0A00002D2D2D2DE1
:1059A0002D2D2D2D2D2D2D2D2D2D2D2D2D2D2D2D27
:1059B0002D2D2D2D2DBAAFCAFDC7E5B5A52D2D2D49
:1059C0002D2D2D2D2D2D2D2D2D2D2D2D2D2D2D2D07
:1059D0002D2D2D2D2D2D2D2D200D0A002D2D2D2D74
:1059E0002D2D2D2D2D2D2D2D2D2D2D2D2D2D2D2DE7
:1059F0002D2D2D2D2DBAAFCAFD204944202D2D2D42
:105A00002D2D2D2D2D2D2D2D2D2D2D2D2D2D2D2DC6
:105A10002D2D2D2D2D2D2D2D200D0A002D2D2D2D33
:105A20002D2D2D2D2D2D2D2D2D2D2D2D2D2D2D2DA6
:105A30002D2D2D2D2D504B45BCAFB3C9D6F7BBFA3C
:105A4000CFB5CDB32D2D2D2D2D2D2D2D2D2D2D2D36
:105A50002D2D2D2D2D2D2D2D2D2D2D2D2D2D2D2D76
:105A60000D0A00002D2D2D2D2D2D2D2D2D2D2D2D03
:105A70002D2D2D2D2D2D2D2D2D2D2D2D2D2D2D2D56
:105A8000BBB6D3ADCAB9D3C32D2D2D2D2D2D2D2DA4
:105A90002D2D2D2D2D2D2D2D2D2D2D2D2D2D2D2D36
:105AA0002D2D2D2D2D2D2D0D0A0000002D2D2D2DF0
:105AB0002D2D2D2D2D2D2D2DBCBCCAF5CCE1B9A938
:105AC000A3BAC9EEDBDACAD0B8BBB0C2D0C7B5E75B
:105AD000D7D3BCBCCAF5D3D0CFDEB9ABCBBEA3AD58
